:020000040040BA
:10000000B00C4020F1014000ED014000ED01400046
:10001000ED014000ED014000ED0140000000000056
:10002000000000000000000000000000ED014000A2
:10003000ED01400000000000ED014000ED01400036
:10004000ED014000ED014000ED014000ED014000F8
:10005000ED014000ED014000BD0F4000ED0140000A
:10006000CD16400000000000ED014000ED01400011
:10007000ED014000ED014000ED014000ED014000C8
:10008000ED014000ED014000ED014000ED014000B8
:10009000ED014000ED014000ED0140002D14400055
:1000A000ED014000ED014000ED014000ED01400098
:1000B000ED014000550E4000ED014000ED01400013
:1000C000ED014000ED014000ED0140003D12400017
:1000D000ED014000ED014000ED014000ED01400068
:1000E000650E4000ED014000ED014000ED014000D3
:1000F000DD164000ED014000ED014000ED01400043
:10010000ED014000ED014000ED014000ED01400037
:10011000ED014000000000000000000000000000B1
:10012000ED014000ED014000ED014000ED01400017
:10013000ED014000ED014000ED014000ED01400007
:10014000ED014000ED014000ED014000ED014000F7
:10015000ED014000ED014000ED014000ED014000E7
:10016000ED014000ED01400010B5054C237833B996
:10017000044B13B10448AFF300800123237010BD7A
:10018000A0004020000000008C2C40000C4B43B12C
:100190000C480D4910B5AFF300800C48036823B933
:1001A00010BD0A48036833B97047094B002BF7D0DC
:1001B000BDE810401847064B002BF5D0184700BF8C
:1001C000000000008C2C4000A40040208C2C40003B
:1001D0000000000010B5034B9847034BBDE81040EA
:1001E000184700BF6D044000151A4000FEE70000EC
:1001F00008B50F4A0F4B9A420ED10F4B00210F4A00
:10020000934212D30E4B0F4A23F07F0393600E4BA1
:1002100098470E4B9847FEE7043A0D498B42ECD2C3
:1002200052F8040F43F8040BF8E743F8041BE7E720
:100230008C2C400000004020A0004020B006402050
:100240000000400000ED00E0351A40005D1840005D
:10025000A000402000F01F02C0F34710F0B50128B5
:100260004FEA4025194C05EB04030CD1101F03285D
:1002700001D90C2A07D1164E0120D6F814719040EE
:100280003843C6F81401481C04D1012303FA02F2D2
:100290002A51F0BD01201C6F11F0010F00FA02F08D
:1002A00014BF204324EA000011F0020F4FF00101B7
:1002B000186701FA02F1586F14BF014320EA0101E7
:1002C0005967012101FA02F25A60F0BD000E0E409A
:1002D0000080084001490248024B1847000C0E40BC
:1002E0001C02402069084000034B9A69120601D4A1
:1002F00080221A61704700BF00060E4010B5054B02
:100300009847054B984705490246054B0548BDE807
:1003100010401847E9024000C316400000080E4094
:10032000490C400088024020034B9A69D20502D450
:100330004FF480721A61704700060E4010B5054CEC
:1003400002210520A047234602210620BDE81040D7
:10035000184700BF5502400013B5084B9847084B9B
:100360009847084C00901023074A08490848A047BE
:10037000084B02B0BDE81040184700BF29034000F9
:10038000C7164000010B4000BC004020000A0E4090
:10039000380240203D034000044BD3F80821D2042A
:1003A00003D44FF48052C3F80021704700060E407A
:1003B00010B5054C02217920A047234602217A205E
:1003C000BDE81040184700BF5502400013B5084B68
:1003D0009847084B9847084C00901023074A084953
:1003E0000848A047084B02B0BDE81040184700BFBE
:1003F00099034000C7164000010B4000CC0040208C
:10040000001A0E4080034020B1034000044BD3F893
:100410000821120702D40822C3F80021704700BF48
:1004200000060E4010B5054C00212320A0472346AE
:1004300000212220BDE81040184700BF55024000AF
:1004400010B5054B9847054B984705490548064B9D
:10045000BDE81040184700BF0D04400025044000CF
:1004600000000340F4014020BD0740002DE9FF419A
:10047000584C594B9847A369DD0402D44FF480537C
:100480002361A369D80302D44FF480332361534A14
:100490004FF0FF315320524D536843F400435360F3
:1004A0004FF400224F4B5A631A61A8474E4B4FF44A
:1004B00080124FF0FF3174205A61C3F890205A66C1
:1004C000A847A369990002D44FF000532361474B1A
:1004D0000027474A01930323464900930A230297C2
:1004E0004548DFF87081C047444E1023444A3946DE
:1004F0004148B0471023434A08213F48B0471023E2
:10050000414A0A213C48B0474FF0FF317E20A847BE
:100510004FF0FF311320A8474FF0FF312020A847AC
:10052000D4F80831DA0503D44FF48073C4F80031ED
:1005300002970527354B364A019306233549009724
:100540003548C0471023354A00213348B0471023AF
:10055000334A01213048B0471023324A03212E4844
:10056000B0471023304A39462B48B04710232F4A52
:1005700006212948B0474FF0FF312120A8474FF00E
:10058000FF314D20A8474FF0FF314C20A8474FF0D6
:10059000FF315E20A8474FF0FF315F20A847244B72
:1005A0009847A3691B0202D44FF400032361214B37
:1005B000984721490246214B21489847214B9847AB
:1005C000214B9847214B9847214B04B0BDE8F0419F
:1005D000184700BF00060E40450F400050180E405F
:1005E0005502400000120E4000140E403803402017
:1005F000DC00402000C003400C0340201D074000E9
:10060000E7004020F70040200701402094024020EE
:100610001701402000400640D00340201E0140202A
:100620002E0140203E0140204E0140205E0140202E
:10063000D50240002914400000C000404909400094
:10064000FC034020FD02400059034000CD03400060
:1006500041044000D1064000836903B11847704748
:10066000C36903B118477047036A2DE9F14F5C5C19
:100670000646D0F828800F4604EB4404DFF84C907F
:10068000D1B29346E40008EB040505F1040A504694
:10069000C84730460C4B9847012806D94FEA1B2122
:1006A0005046C847AB8A0133AB82AB8A0133AB8279
:1006B00058F804302BB13946304601B0BDE8F04F50
:1006C000184701B0BDE8F08F0D0F4000E10C40006D
:1006D00070B50446FF260020C5B201305655C5B29C
:1006E000AB42F9D284F8243020469DF810302262C3
:1006F00084F82530059BA362044B984728B9044B26
:10070000A360044B2360044B636070BD750E400012
:10071000690640005906400061064000F8B50F46E2
:10072000D0F820E0114605461EF80720FF2A1AD10E
:1007300090F8242000200446C6B2964216D995F8B7
:100740002520A2421AD304EB4406A86A1A460D4B90
:10075000F60030440430984728B92B6ADC55AB6A60
:100760001E44B082F8BD6FF00C00F8BD1EF80660A4
:100770000130FF2E1CBF0134E4B2DDE76FF01B0037
:10078000F8BD00BFA70C4000EFF31083036072B602
:10079000BFF35F8F7047BFF35F8F036883F31088E9
:1007A0007047C36903B118477047036A03B118471C
:1007B0007047436A03B118477047000010B5054BF6
:1007C0000446984728B9044B6360044BA360044B6C
:1007D000E36010BDD50F4000A3074000AB07400009
:1007E000B3074000004B1847B5104000004B1847B6
:1007F000C5104000012908B50DD004D302290CD042
:100800006FF00C0008BD02620032054B18BF0122D8
:100810009847002008BDC261F6E74262F4E700BFD6
:100820008511400010B4024CA4465DF8044B6047AB
:10083000C5114000054B10B51C68054B9847054B8A
:1008400001462046BDE81040184700BF7001402017
:10085000310F40003D0F4000436903B11847704716
:10086000836903B11847704710B5044B0446984795
:1008700018B9034B2360034B636010BD950F400014
:10088000590840006108400003681847436818474A
:10089000F0B505681DB90F4BBDE8F0401847D1F819
:1008A00008E02C460026C2F1010C6368A768934259
:1008B00095BFDB1963449B1ADB19734507D2236884
:1008C000264613B93046044BE6E71C46EDE7A54241
:1008D000F8D1E0E78B0C4000930C40002DE9F04785
:1008E00006690546037E01364469DA07066110D4BD
:1008F000037E9B070DD400F11407DFF84480DFF876
:10090000449024B16368A268F31A934207D2BDE809
:10091000F0872B7E43F002032B76BDE8F087384644
:10092000C047237C012B04D16660324621463846FD
:10093000C847D5F814A02046E36898475446E0E736
:100940009B0C40009108400010B5044B04469847AA
:100950000020034B2061236010BD00BF75134000D1
:10096000DD08400038B5064B05469847044620B9D7
:100970002846044B9847204638BD6FF0100038BD1C
:10098000FD134000F5134000F7B5037E00F1140697
:1009900004460F4643F0010303763046144B984754
:1009A000054638B1237E6FF0110003F0FE03237675
:1009B00003B0F0BD226930460E4B39467A60984745
:1009C000237E03F0FE032376207E10F00200EFD09A
:1009D00001A8094B9847237E204603F0FD032376A8
:1009E000064B984701A8064B98472846E0E700BF0A
:1009F0007D0C400091084000890740000914400028
:100A0000970740000346002208389A62DB6903B169
:100A1000184770470346002208389A625B6A03B1A0
:100A20001847704770B50446054BA0F108052C30F7
:100A30009847236A1BB12846BDE87040184770BD2F
:100A4000E10C400010B5B0F84C301446B0F844202A
:100A50009A420BD100238164A0F84C400830838770
:100A600001238362034B9847204610BD6FF01B00A3
:100A700010BD00BF57164000838FB0F844209A4243
:100A800010B504460AD0026C591C8187D15C044B16
:100A900098472046034BBDE810401847024BFAE741
:100AA0002B164000571640005F1640002DE9F74313
:100AB00005460F4B01A88846343516460024984752
:100AC000DFF8389028460B4B98470B4B074601A898
:100AD0009847A74201D0B44203D1A0B203B0BDE809
:100AE000F08308EB04012846C8470134F1E700BF52
:100AF00089074000070D400097074000BF0C4000E9
:100B000038B504460D46343011461A460C4B98470A
:100B100090B9294604F108000A4B984770B90A4B6E
:100B200063600A4B23600A4BA3600A4BE3600A4BE5
:100B300023610A4B636138BD6FF00C0038BD00BF04
:100B4000A70C400071154000AD0A4000450A400066
:100B5000790A4000250A4000050A4000150A4000B5
:100B600008B50830014B9847002008BD1D1640000D
:100B70000860002070470000012908B510D004D398
:100B8000022914D06FF00C0008BD826200324FF0D1
:100B9000010118BF01220830084B9847002008BD0A
:100BA000426200324FF0020118BF0122F3E7C26235
:100BB00000324FF0030118BF0122ECE76916400034
:100BC0002DE9F8430F4C0F46164600F10805A146E3
:100BD0002846A0470028FBD00024DFF83080395D8C
:100BE0002846C0472846C8470028FBD00134B442F5
:100BF000F5D3054E2846B0470028FBD02046BDE877
:100C0000F88300BF39164000431640002516400007
:100C10002DE9F8430F461646002400F10805DFF8D9
:100C20002090DFF820802846C8470028FBD02846BF
:100C3000C04738550134B442F5D32046BDE8F883A7
:100C40004D1640003116400010B5054B04460830E3
:100C5000984718B9034B6360034B236010BD00BF76
:100C600035154000110C4000C10B400008B508309C
:100C7000014B9847002008BD15164000006800B9D8
:100C800070478842FAD10120704703680B60016009
:100C9000704703680B600160704703680BB11A6806
:100CA000026018467047531E1A4001BF43608260BD
:100CB000C26001600CBF10466FF00C007047836883
:100CC000C2689A4209D0426813400268D35C0B7034
:100CD000836801338360002070476FF0090070471C
:100CE000C368426813400268D154C368816842688F
:100CF000591A914288BF9A1A03F1010388BF826092
:100D0000C36000207047C2688068101A70470000F6
:100D1000044B0246196809B903491960186802446E
:100D20001A60704774014020B00C40204FF0FF3033
:100D300070474FF4005300204B607047012070470C
:100D40000020704700280DDB4309012200F01F003E
:100D5000203302FA00F0044A42F82300BFF34F8F19
:100D6000BFF36F8F704700BF00E100E0024BC31A72
:100D700058425841704700BF0040064030B56422D9
:100D8000164C02FB014301FB02415D6830314560B6
:100D90009D688560DD68C5601D6905615D690565E3
:100DA0009D694565DD6905661D6AC0F894505D6AF8
:100DB000C0F8A0509D6AC0F8D050DD6A1B6BC0F827
:100DC000D450C0F8D83000234366013351F8042FC3
:100DD0000C2BC266F8D1002030BD00BFB82A4000FD
:100DE000426973B5116B0546D36A0B400193019BB1
:100DF0005A0102D5036800219847019B9B0103D546
:100E00006B68002128469847019B0126C3F30B031A
:100E10000193019CB4FA84F4C4F12004E4B20CB947
:100E200002B070BD013C6B692846E4B25C662146A5
:100E30009A6E06FA04F4AB6892B29847019B23EAD3
:100E400004040194019CB4FA84F4C4F12004E4B2D3
:100E5000E5E70000014B1868014B18477801402076
:100E6000E10D4000014B5868014B184778014020C4
:100E7000E10D400070B50C461E4B054608469847EC
:100E80001D4B014620469847064680B91B4B6C61B6
:100E90009C420ED11A4B1D201D601A4B9847696960
:100EA000164B99420ED003F5203399421FD030469D
:100EB00070BD154B9C4205BF114B28204FF0FF30F1
:100EC0005D60EAE71D2303F01D005B0901229B0022
:100ED00082400A4803F16043814203F56143C3F84D
:100EE000802102D008488142E1D11A60DFE728233F
:100EF000E9E700BF6D0D40007D0D400000C00340DC
:100F000078014020450D4000004006400220704717
:100F100043B2002B09DB01225B0900F01F004033C4
:100F200002FA00F0014A42F82300704700E100E0B5
:100F3000014B5843704700BFE09304000139FDD8CE
:100F40007047000007B50E4B01A898470D4AD2F82C
:100F5000883043F47003C2F88830BFF34F8FBFF37B
:100F60006F8F094B01A89847084A136823F47063F0
:100F700043F4C0631360064B984703B05DF804FB6D
:100F80008907400000ED00E097074000000C0E408C
:100F9000A1124000074B402201611860064BC3F8C4
:100FA0008020BFF34F8FBFF36F8F0020C3F88021E5
:100FB0001A6070478001402000E100E0044B18688F
:100FC00003699B68DB0702D5036803B118477047C4
:100FD000800140208B6943F0010310B501608B61F3
:100FE0008B69DB07FCD58B6943F002038B612B4BCC
:100FF000994245D12A4B00242A4A83618B698B612F
:1010000040F60453CB614FF45463CB6040F60B338E
:101010008B64254B9BB243F4C023C1F8A030234B13
:10102000C1F8BC409BB2C1F8C84043F0C063C1F8EE
:10103000C03093B243F40033C1F8F0302B23C1F831
:10104000803002F110039BB243F40033C1F88430C6
:1010500002F118039BB243F40033C1F88830C1F8A1
:101060009040134B90620822C3F88420BFF34F8F47
:10107000BFF36F8FC3F884215A6001220368DA65D9
:1010800003689A6922F002029A619A6922F00102C9
:101090009A61986910F00100FBD110BD0000034077
:1010A00000004020840140201804402078044020A3
:1010B00000E100E002680020936923F001039361DE
:1010C0007047000002680B46D2F8A4104906F0B53C
:1010D000054685B047D02749D2F8A4408A4245D179
:1010E000C4F30524244A21018F183FD08858C0F347
:1010F000807010F0FF0F30D058738858C0F31C0078
:101100008A58EE461860C2F3407212F0FF0F18BF03
:101110001A711A4A02F1100C1068083252F8041CB5
:101120007646624503C6B646F6D17A6804A9986841
:10113000C2F303420A4407F1080112F8102C1A7393
:101140000F4B98472A680020D2F8A83023F03F03BD
:101150001C43C2F8A84005B0F0BD00205873885861
:10116000C0F38A40CCE76FF00900F4E76FF01B0092
:10117000F1E700BF0000034018044020802B40002E
:101180007D1A400031B901684B6D23F001031A4309
:101190004A65704701290BD101684B6D23F4007338
:1011A00043EA42224FF0FF334A65C1F8E03070470E
:1011B000022906D10268536D23F4FF739B059B0D32
:1011C0005365704730B58069EAB909B2C2681BB986
:1011D00042F82130002030BD586842F821001868DC
:1011E00052F8213060F31A43022042F8213052F8BD
:1011F000213060F39F73012042F8213052F82130F2
:1012000060F3DD63E4E7012AE4D109B2006900EB91
:10121000C10413B940F83130DCE71D6840F83150A3
:1012200050F8315062F35F75022240F831505B682C
:101230006360636862F39F736360CBE738B5174BF5
:101240009C6A23681D6DE80702D5A368204698476D
:10125000AA0502D5636820469847AB0103D5E36829
:10126000032120469847E80103D5E3680021204682
:1012700098472A0209D522682046E368526C12F08A
:10128000200F14BF0221012198472B0703D5E368E3
:1012900004212046984723681D6538BD84014020FD
:1012A000274B284A196A21F002010A431A629A6EF2
:1012B000D107FCD51A6A42F09B7242F480321A625E
:1012C0009A6A22F0FF6222F4E0229A621E4A9A622F
:1012D0009A6E9207FCD54FF47102DA619A6E50064D
:1012E000FCD51A6B42F400521A639A6E1107FCD5B2
:1012F0001A6B22F070021A639A6E1207FCD51A6BF1
:1013000022F4407242F480721A639A6E1007FCD580
:101310001A6B22F0030242F002021A639A6E11075E
:10132000FCD5B3225A659A6E9204FCD54FF4005254
:101330001A6040F201429A6320221A60704700BF8F
:1013400000060E40013E3700013F182000280DDB4B
:101350004309012200F01F00203302FA00F0044A82
:1013600042F82300BFF34F8FBFF36F8F704700BF6A
:1013700000E100E010B51B4C236899422FD1A3680F
:10138000C1601A0448BF43F414234B6063694B6186
:10139000A3698B61E3680B63E369CB6110234B6244
:1013A0002369C1F8D830104B994204BF0F4B186025
:1013B0000F4B94F90400984794F90430002B0CDB90
:1013C00003F01F015B0901229B008A4003F1604387
:1013D00003F56143C3F880211A60002010BD00238B
:1013E0009B68FFDE1400402000C00040B001402098
:1013F0004D134000C36805221A607047C368186A1D
:10140000C0F3004070470000054BC1681A68914264
:1014100002D11879034B184700231B79FFDE00BF68
:1014200014004020110F400000207047044B186842
:10143000C3681B6ADB0601D503681847704700BF05
:10144000B001402000280DDB4309012200F01F00FD
:10145000203302FA00F0044A42F82300BFF34F8F12
:10146000BFF36F8F704700BF00E100E08369024661
:101470005969890706D51969890703D50221D960F9
:10148000036818475969880508D51969890505D57C
:101490004FF40071D96093681046F2E75969C807A4
:1014A00010D51969C9070DD5596911F0E00F04D09D
:1014B0009A694FF480721A607047996910465368B0
:1014C000C9B21847596911F0E00F04D04FF4807188
:1014D0001960D368E0E770470E4B984212D003F5CD
:1014E0000073984210D003F5805398420ED003F554
:1014F000007398420CD003F5007398420CBF04208F
:10150000FF2070470020704701207047022070477D
:101510000320704700080E4008B5054B984728B1D6
:10152000012803D0022814BF0020022008BD00BFFC
:10153000D914400008B5016008460A4B98470A4B89
:101540000A4AC1F8E430AC230B604FF480730B609F
:101550000C2303FB002043684B60836800200B6270
:1015600008BD00BF1915400000524155902B4000A6
:1015700010B5204B0446084698471F4B0C22C1F873
:10158000E430AC230B604FF480730B601B4B02FB09
:10159000003042684A6082680A62194AA161914239
:1015A0001A4620D1174B1C60174B08469847042851
:1015B00096BF1318FF2493F82440144B61B20846D9
:1015C000984700290DDB012304F01F0403FA04F4FB
:1015D0004B099B0003F1604303F56143C3F880416D
:1015E0001C60002010BD0A4B994204BF054B5C6093
:1015F000DAE700BF1915400000524155902B40001A
:10160000000A0E40B4014020D914400045144000A7
:10161000001A0E40036850221A60704783695022F6
:101620001A6070470368D96170478369D961704750
:1016300003689869C0B2704703685869C0F34000F6
:10164000704703685869C0F34020704703685869C1
:1016500000F001007047836902229A607047836935
:101660004FF400729A60704721F00203A2B133B9BF
:10167000836902229A604FF400729A6070470129D0
:1016800002D1836999607047032919D182699368EF
:1016900043F0E0039360704733B983690222DA6054
:1016A0004FF40072DA607047012902D18369D96072
:1016B0007047032904D18269D36843F0E003D36003
:1016C000704700207047002070470000014B1868E9
:1016D000014B1847B40140206D144000014B58687D
:1016E000014B1847B40140206D144000034B1A7899
:1016F00012B1034B1868704758687047BC0140200E
:1017000038004020074B1A783AB15A6802325A60C2
:101710001A7882F001021A70704703490A6802328F
:101720000A60F5E7BC0140203800402073B54F2522
:101730000D4E0E4C01220DF1070130460C4B98471F
:1017400008B1013D01D102B070BD0A4B9847237B1F
:101750009DF807207E2BA060D4BF013300232373A4
:10176000002AE7D12273E5E780034020BC01402036
:101770008D084000ED16400073B54F250E4E0F4CFE
:1017800001220DF1070130460D4B984708B1013D8C
:1017900001D102B070BD0B4B9847237D9DF8072007
:1017A0007E2B2061D4BF013300230A2A237504BF96
:1017B00000232375E4E700BF38024020BC0140202D
:1017C0008D084000ED164000044A936B03F48073CB
:1017D000D94301F4807111635363704700120E40C6
:1017E00010B50023044C054804EB430219180833D4
:1017F0009160802BF8D110BD88054020D80440208E
:10180000074B08485A7D0E2A00EB0210D4BF013264
:1018100000225A759A7D0F2A9CBF01329A75704733
:10182000BC01402088054020094A936B03F4807373
:10183000D94301F4807110B5044611635363054B1D
:101840009847054B01462046BDE81040184700BFA9
:1018500000120E4001184000ED07400007B5274B6D
:101860009847274B27489847274C284A0021284863
:10187000A047284A01212648A047274B2448002496
:101880009847264B4FF400622146254D1A612048A7
:101890005A6322466B4600940194A84721490123CC
:1018A000214A0B621831CA600B742048204B9847BC
:1018B000204B1E489847204D2146204A2048A847E3
:1018C000204A21462048A847204C1D48A0471E48D2
:1018D000A0471F4B98471F4B69461F4898471F4E0C
:1018E0004FF400221E4B1F4D1F4C5A636420B0471B
:1018F0000C2229460098A047F8E700BFD501400018
:10190000A51A4000B92B4000F507400029184000F7
:10191000F4014020C9174000E507400000140E40C4
:1019200025084000BC01402005174000FC03402072
:101930008909400065094000790B40007917400093
:10194000380240202D17400080034020610B4000EA
:10195000E1174000710B400088024020350840002C
:1019600000120E40C52B40008908400008B50B4608
:1019700030B911461846044B984740EAE07008BD5C
:101980004FF0FF3008BD00BFDD19400001380228CC
:1019900008B50B4606D811461846044B984740EA4E
:1019A000E07008BD4FF0FF3008BD00BFF9194000DE
:1019B00070B5074D06460021064C2B689868A04775
:1019C0002B6800215868A047034B1E6070BD00BF04
:1019D0003C004020D51A4000E8014020044A03465C
:1019E000106818B18AB21946024B1847704700BFF9
:1019F000E80140208D084000044A0346106818B1F1
:101A00008AB21946024B1847704700BFE8014020D0
:101A10008908400010B5044C044B204698472046E6
:101A2000034BBDE810401847880240206D0C400071
:101A3000B119400070B50D4E0D4CA41BA41000252B
:101A4000A54209D10B4E0C4C01F010F9A41BA410B7
:101A50000025A54205D170BD56F8253098470135BF
:101A6000EEE756F8253098470135F2E7782C40002C
:101A7000782C4000782C40007C2C400010B5431E90
:101A80000A44914200D110BD11F8014B03F8014FF7
:101A9000F7E702440346934200D1704703F8011B65
:101AA000F9E700000FB40A4B13B51C6824B1A36911
:101AB00013B9204600F076FA05AB049AA1680193A9
:101AC000204600F039FC02B0BDE8104004B0704779
:101AD0003C00402000294FF480630CBF022200220A
:101AE00000F000B82DE9F7431D46514B1E6804462F
:101AF0000F46904626B1B36913B9304600F052FA4A
:101B00004C4B9C4252D17468B8F1020F06D0B8F128
:101B1000010F00F28980002DC0F2868021463046F8
:101B200000F0D6F9616B41B104F14403994202D04F
:101B3000304600F02DFB002363630023A361636044
:101B4000A3891B0603D52169304600F021FBA38938
:101B500023F44A6323F00303B8F1020FA3815DD09D
:101B600001AB6A462146304600F0A6FAA389184325
:101B7000A0812DBB009D284600F002FB07460028EF
:101B80004ED1DDF80090A9453CD14FF0FF30A3893C
:101B900043F00203A3810023A36004F14703236001
:101BA00023610123636103B0BDE8F083224B9C42B3
:101BB00001D1B468A8E7214B9C4208BFF468A3E7B1
:101BC000002FD8D0B36913B9304600F0EBF9B8F163
:101BD000010F08BFA389276004BF43F00103A3815D
:101BE000A389276113F0080065611BD013F0010081
:101BF00018BF6D424FF000031DBFA360A5611846DA
:101C0000A560D0E7484600F0BBFA07460028BCD0E4
:101C1000A38943F08003A3814D46D3E70020B6E7B4
:101C2000A946F5E7A060BEE74FF0FF30BBE700BF75
:101C30003C004020F82B4000182C4000D82B4000DE
:101C4000F8B50E461446054618B183690BB900F085
:101C5000A9F9214B9C422AD16C68A369A360A3898E
:101C60001A072ED5236963B323692068C01A6369F4
:101C7000F6B29842374604DB2146284600F028F9A0
:101C800028BBA368013BA36023685A1C22601E7016
:101C900063690130984204D0A389DB0719D50A2E65
:101CA00017D12146284600F013F990B10FE00B4BF5
:101CB0009C4201D1AC68D0E7094B9C4208BFEC685C
:101CC000CBE72146284600F00DF80028CCD04FF095
:101CD000FF373846F8BD00BFF82B4000182C4000F5
:101CE000D82B4000324B70B51D6806460C4625B116
:101CF000AB6913B9284600F055F92E4B9C420FD121
:101D00006C68B4F90C309AB215072CD4D00611D4F3
:101D10000922326043F04003A3814FF0FF3070BDD1
:101D2000254B9C4201D1AC68EBE7244B9C4208BF99
:101D3000EC68E6E7510712D5616B41B104F1440349
:101D4000994202D0304600F023FA00236363A3894E
:101D500023F02403A3810023636023692360A38904
:101D600043F00803A38123694BB9A38903F42073CB
:101D7000B3F5007F03D02146304600F0C1F9A289B7
:101D800012F001030CD00023A36063695B42A361DE
:101D9000236953B9B4F90C3013F08000BAD170BD87
:101DA000920758BF6369A360F2E70020F7E700BF1E
:101DB0003C004020F82B4000182C4000D82B40005D
:101DC0008A892DE9F041054610070C465AD44B6824
:101DD000002B05DC0B6C002B02DC0020BDE8F08141
:101DE000E66A002EF9D0002312F480522F682B608F
:101DF00033D0606DA3895A0705D56368C01A636B39
:101E00000BB1236CC01A00230246E66A216A2846F9
:101E1000B047431CA38906D129681D294BD82B4AFA
:101E2000CA40D60747D500226260D90422692260E1
:101E300004D5421C01D12B6803B96065616B2F602A
:101E40000029CAD004F14403994202D0284600F088
:101E50009FF900206063BDE8F081216A01232846D4
:101E6000B047411CC6D12B68002BC3D01D2B01D01D
:101E7000162B01D12F60B0E7A38943F04003A38163
:101E8000BDE8F0810F69002FA7D093070E6808BF47
:101E90004B690F6018BF0023A6EB07088B60B8F1F1
:101EA000000F9ADD43463A46216AA66A2846B047A3
:101EB000002807DCA38943F04003A3814FF0FF30E3
:101EC000BDE8F0810744A8EB0008E8E701004020E6
:101ED00038B50B6905460C46DBB118B183690BB9FF
:101EE00000F060F80C4B9C4209D16C68B4F90C30DE
:101EF0007BB121462846BDE83840FFF761BF074B5C
:101F00009C4201D1AC68F1E7054B9C4208BFEC68EC
:101F1000ECE7002038BD00BFF82B4000182C400033
:101F2000D82B4000014900F0A9B800BFD11E4000E5
:101F3000002310B5044603604360836081814366DB
:101F4000C281036143618361194608225C30FFF757
:101F5000A0FD054B6362054BA362054BE362054B95
:101F60002462236310BD00BFB1284000D328400085
:101F70000B2940002F29400070B54A1E68255543A3
:101F80000E4605F1740100F051F9044640B10021FC
:101F900080E842000C30A06005F16802FFF779FD8F
:101FA000204670BD836910B5044633BB8364C364A7
:101FB0000365124B124A1B688262984204BF0123D8
:101FC000836100F01FF86060204600F01BF8A060FD
:101FD000204600F017F80022E06004216068FFF757
:101FE000A7FF01220921A068FFF7A2FF0222122108
:101FF000E068FFF79DFF0123A36110BDD42B4000D3
:10200000251F4000F8B51C4B1E68B369074613B97D
:102010003046FFF7C7FF4836B4687368013B03D505
:10202000336833B13668F7E7B4F90C506DB16834F2
:10203000F4E704213846FFF79FFF30600028F1D114
:102040000C233B6004462046F8BD4FF6FF73E38146
:102050000123A38165662560A560656025616561D2
:10206000A5610822294604F15C00FFF712FD6563B3
:10207000A563A564E564E6E7D42B40002DE9F843A9
:102080008046894600F14804002614B93046BDE870
:10209000F883A5686768013F01D52468F5E7AB8937
:1020A000012B07D9B5F90E30013303D0294640463C
:1020B000C84706436835EEE770B50E46B1F90E1015
:1020C000002990B014461D4607DA00232B60B3891F
:1020D0001A0610D44FF480630EE001AA00F04EFC03
:1020E0000028F2DB029A02F47042A2F500535A4231
:1020F0005A412A60EEE740230020236010B070BDF3
:102100008B8973B59D0706460C4607D504F1470336
:10211000236023610123636102B070BD01AB6A4695
:10212000FFF7CAFF00990546304600F07FF848B92E
:10213000B4F90C309A05EFD423F0030343F0020303
:10214000A381E3E70D4BB362A389206043F08003D2
:10215000A381009B6361019B20615BB1B4F90E1008
:10216000304600F01DFC28B1A38923F0030343F09F
:102170000103A381A3891D43A581CDE7251F40004D
:10218000024B0146186800F051B800BF3C004020E7
:1021900038B50546002945D051F8043C0C1F002BEA
:1021A000B8BFE41800F074FC1F4A1368104633B936
:1021B000636014602846BDE8384000F06ABCA34262
:1021C0000CD921686218934204BF1A685B68636087
:1021D00004BF521822600460ECE713465A680AB143
:1021E000A242FAD919685818A0420BD120680144BC
:1021F000581882421960DDD1106852685A60014453
:102200001960D7E702D90C232B60D3E72068211887
:102210008A4204BF11685268626004BF09182160D5
:102220005C60C7E738BD00BFEC01402070B5CD1C35
:1022300025F0030508350C2D38BF0C25002D06466A
:1022400001DBA94203D90C233360002070BD00F0EC
:102250001FFC234A1468214691B9224C23681BB9FC
:10226000304600F015FB20602946304600F010FB98
:10227000431C26D10C233360304600F00AFCE4E70F
:102280000B685B1B1AD40B2B0FD90B60CD50CC18ED
:10229000304600F0FEFB04F10B00231D20F0070088
:1022A000C31A1BD05A42E25070BD8C420DBF636806
:1022B0004B686360136018BF0C46E9E70C46496839
:1022C000CAE7C41C24F00304A04205D0211A3046FA
:1022D00000F0DEFA0130CDD02560D9E770BD00BF37
:1022E000EC014020F00140209368013B002B10B42A
:1022F000936008DA9469A34202DBCBB20A2B02D1C5
:1023000010BCFFF79DBC1368581C10601970C8B250
:1023100010BC7047F8B506460F461446D518AC42B7
:1023200001D1002007E03A4614F8011B3046FFF7C0
:10233000DBFF431CF3D1F8BD2DE9F04F9DB00C46F7
:1023400017460393064618B183690BB9FFF72AFEB7
:102350007C4B9C4257D17468A38918075DD52369CB
:10236000002B5AD00023099320238DF829303023E5
:102370008DF82A304FF0010BB846454615F8013B61
:10238000002B55D1B8EB070A0BD053463A462146ED
:102390003046FFF7BFFF013000F0C480099B534473
:1023A000099398F80030002B00F0BC8000234FF018
:1023B000FF3204930793059206938DF853301A93D6
:1023C00005222978604800F013FB05F10108049B01
:1023D000002831D1D90644BF20228DF853201A0796
:1023E00044BF2B228DF853202A782A2A2CD0079A12
:1023F00000210A20A846013598F80030303B092B0F
:102400006DD971B326E0514B9C4201D1B468A3E76A
:102410004F4B9C4208BFF4689EE721463046FFF7C9
:1024200061FC00289ED04FF0FF301DB0BDE8F08F5A
:10243000252BA7D0A846A0E7434A801A0BFA00F044
:10244000184304904546BBE7039A111D1268039197
:10245000002A01DB079204E0524243F00203079294
:10246000049398F800302E2B10D198F801302A2BC5
:1024700008F1010137D1039B1A1D1B680392002B41
:10248000B8BF4FF0FF3308F102080593314D98F8BB
:1024900000100322284600F0ABFA40B14023401B55
:1024A00003FA00F0049B0343049308F1010898F831
:1024B000001029488DF82810062208F1010700F0C5
:1024C00097FA002834D0254B03BB039B073323F036
:1024D000070308330393099B4B4409934CE700FB24
:1024E0000232012186E70023059318460A25884613
:1024F000013198F80020303A092A03D9002BC5D0C1
:102500000590C3E705FB00200123F0E703AB009330
:102510002246134B04A93046AFF30080B0F1FF3FD1
:102520008146D8D1A3895B063FF57DAF09987CE74A
:1025300003AB009322460A4B04A9304600F088F80A
:10254000ECE700BFF82B4000382C4000182C40006E
:10255000D82B40003E2C4000422C400000000000E0
:10256000152340002DE9F04791461F468A680B6904
:10257000DDF820809342B8BF1346C9F8003091F8C7
:10258000432006460C4612B10133C9F800302368D7
:10259000990642BFD9F800300233C9F800302568E7
:1025A00015F0060507D104F1190AE368D9F80020EF
:1025B0009B1A9D4229DB94F843302268003318BFF0
:1025C000012392062ED404F1430239463046C04717
:1025D000013021D02368E568D9F8002003F0060314
:1025E000042B08BFAD1AA36822690CBF25EAE57564
:1025F00000259342C4BF9B1AED184FF000091A340E
:102600004D451BD10020BDE8F087012352463946D5
:102610003046C047013003D14FF0FF30BDE8F087AE
:102620000135C2E7E1185A1C302081F843002244EA
:1026300094F8451082F843100233C4E70123224680
:1026400039463046C0470130E6D009F10109D7E7E5
:102650002DE9F04317460A7E85B06E2A9846064655
:102660000C460C9B01F1430E00F0BC801AD8632A83
:102670002ED00AD8002A00F0C880582A00F08A809C
:1026800004F1420584F842202AE0642A01D0692A34
:10269000F6D121681A6811F0800F23D0111D19603E
:1026A000136827E0732A00F0B48008D86F2A2AD074
:1026B000702AE5D10A6842F020020A6003E0752A18
:1026C00021D0782ADCD1782284F845206E4964E054
:1026D0001A6801F14205111D1960136884F842302F
:1026E0000123A3E011F0400F02F104011960D7D0DB
:1026F000B2F90030002B03DA2D225B4284F843202C
:1027000062490A2217E02068196810F0800F03D090
:10271000081D18600B6806E010F0400F01F104007E
:102720001860F7D00B8859496F2A14BF0A22082273
:10273000002084F843006568A560002DC0F29C80ED
:10274000206820F004002060002B3FD1002D40F0D5
:1027500095807546082A0BD12368DA0708D52369C6
:1027600062689A42DEBF302305F8013C05F1FF356F
:10277000AEEB05032361CDF800803B4603AA21465A
:102780003046FFF7EFFE013055D14FF0FF3005B076
:10279000BDE8F08381F845203C492268186812F0B2
:1027A000800F00F104051D6001D0036802E05506AA
:1027B000FBD50388D00744BF42F0200222601BB93A
:1027C000226822F0200222601022B1E77546B3FB96
:1027D000F2F002FB1033CB5C05F8013D0346002804
:1027E000F5D1B7E708681A68496910F0800F04D07E
:1027F000101D18601368196007E010F0400F02F117
:10280000040018601368F6D0198000232361754610
:10281000B1E71A68111D1960156862680021284621
:1028200000F0E6F808B1401B606063682361002394
:1028300084F843309FE723692A4639463046C0472B
:102840000130A2D023689B0707D5002504F11909A0
:10285000E368039A9B1A9D4205DBE068039B98425C
:10286000B8BF184693E701234A4639463046C04769
:1028700001308AD00135EBE7002BA7D10B7884F823
:10288000423004F1420565E75A2C4000492C4000D3
:1028900038B5064C0023054608462360FEF738FA93
:1028A000431C02D1236803B12B6038BDAC06402025
:1028B00010B50C46B1F90E1000F0ECF80028ABBFD3
:1028C000636DA3891B1823F48053ACBF6365A38198
:1028D00010BD2DE9F0411F468B89DB0505460C46EE
:1028E000164605D502230022B1F90E1000F068F853
:1028F000A389B4F90E1023F48053A38132463B46DA
:102900002846BDE8F04100F017B810B50C46B1F903
:102910000E1000F055F8431CA38915BF606523F421
:10292000805343F48053A38118BFA38110BDB1F934
:102930000E1000F013B8000038B5074C05460846E5
:102940001146002222601A46FFF720F8431C02D1EC
:10295000236803B12B6038BDAC06402038B5064C67
:102960000023054608462360FEF7E0F9431C02D128
:10297000236803B12B6038BDAC06402038B5074C46
:1029800000230546084611462360FEF7D2F9431C92
:1029900002D1236803B12B6038BD00BFAC064020D4
:1029A00038B5064C0023054608462360FEF7C6F9F5
:1029B000431C02D1236803B12B6038BDAC06402014
:1029C00038B5074C054608461146002222601A46D3
:1029D000FEF7B6F9431C02D1236803B12B6038BD62
:1029E000AC064020000000000000000000000000D5
:1029F00001F0FF01102A2BDB10F0070F08D010F8B0
:102A0000013B013A8B422DD010F0070F42B3F6D1B3
:102A1000F0B441EA012141EA014122F007047FF0CC
:102A200000070023F0E80256083C85EA010586EA23
:102A3000010685FA47F5A3FA87F586FA47F6A5FA5F
:102A400087F68EB9EED1F0BC01F0FF0102F007026B
:102A500032B110F8013B013A83EA010313B1F8D116
:102A60000020704701387047002D06BF35460338F7
:102A7000073815F0010F07D1013015F4807F02BF30
:102A8000013015F4C03F0130F0BC0138704700BF81
:102A90007047704738B5074C054608461146002276
:102AA00022601A46FEF762FF431C02D1236803B17D
:102AB0002B6038BDAC064020000000000007842FCA
:102AC00000000503FFFFFFFFFFFF00000000000004
:102AD00000000000000000000C01000000000000E9
:102AE00000000000000000000000000000020000E4
:102AF00000020000000200000002000000020000CE
:102B000000020000000200000002000000020000BD
:102B100000020000000200000002000001000000AE
:102B20000007842F00000503FFFFFFFFFFFF0000E9
:102B30000000000000000000000000000C01000088
:102B40000000000000000000000000000000000085
:102B5000000200000002000000020000000200006D
:102B6000000200000002000000020000000200005D
:102B7000000200000002000000020000000200004D
:102B80000001020304050607080C10141820304049
:102B90000000000000080000F40000000100000038
:102BA00000080000510000000200000000080000C2
:102BB0005100000007082C2D2E48656C6C6F2057C3
:102BC0006F726C640048656C6C6F20776F726C6418
:102BD0000000000040004020000000000000000055
:102BE00000000000000000000000000000000000E5
:102BF00000000000000000000000000000000000D5
:102C000000000000000000000000000000000000C4
:102C100000000000000000000000000000000000B4
:102C200000000000000000000000000000000000A4
:102C30000000000000000000232D302B2000686CF5
:102C40004C006566674546470030313233343536CF
:102C50003738394142434445460030313233343508
:102C6000363738396162636465660000F8B500BFC5
:102C7000F8BC08BC9E4670478D014000F8B500BF07
:0C2C8000F8BC08BC9E467047690140008B
:102C8C001804402078044020840140209401402006
:102C9C009C01402000C000401700000001C0000053
:102CAC0000000000000000009F2400000000000055
:102CBC003E490000000000000100000040004020E0
:102CCC0000000000F82B4000182C4000D82B4000CE
:102CDC0000000000000000000000000000000000E8
:102CEC0000000000000000000000000000000000D8
:102CFC0000000000000000000000000000000000C8
:102D0C0000000000000000000000000000000000B7
:102D1C0000000000000000000000000000000000A7
:0400000500400000B7
:00000001FF
