S01100007663755F74696D65722E7372656345
S214400000180F4020E1014000DD014000DD014000C6
S214400010DD014000DD014000DD0140000000000041
S214400020000000000000000000000000DD0140006D
S214400030DD01400000000000DD014000DD01400021
S214400040DD014000DD014000DD014000DD014000F3
S214400050DD014000DD014000890E4000DD0140002A
S2144000601915400000000000DD014000DD014000A1
S214400070DD014000DD014000DD014000DD014000C3
S214400080DD014000DD014000DD014000DD014000B3
S214400090DD014000DD014000DD014000F912400076
S2144000A0DD014000DD014000DD014000DD01400093
S2144000B0DD014000210D4000DD014000DD01400033
S2144000C0DD014000DD014000DD0140000911400037
S2144000D0DD014000DD014000DD014000DD01400063
S2144000E0310D4000DD014000DD014000DD014000F3
S2144000F029154000DD014000DD014000DD014000E3
S214400100DD014000DD014000DD014000DD01400032
S214400110DD0140000000000000000000000000007C
S214400120DD014000DD014000DD014000DD01400012
S214400130DD014000DD014000DD014000DD01400002
S214400140DD014000DD014000DD014000DD014000F2
S214400150DD014000DD014000DD014000DD014000E2
S214400160DD014000DD01400010B5054C237833B971
S214400170044B13B10448AFF300800123237010BD35
S2144001800C02402000000000F84540000C4B43B1F4
S2144001900C480D4910B5AFF300800C48036823B9EE
S2144001A010BD0A48036833B97047094B002BF7D097
S2144001B0BDE810401847064B002BF5D0184700BF47
S2144001C000000000F845400010024020F84540007E
S2144001D000000000004B18471D044000FEE70000EA
S2144001E008B50F4A0F4B9A420ED10F4B00210F4ACB
S2144001F0934212D30E4B0F4A23F07F0393600E4B6D
S21440020098470E4B9847FEE7043A0D498B42ECD28E
S21440021052F8040F43F8040BF8E743F8041BE7E7EB
S214400220F8454000000040200C02402014094020C1
S2144002300000400000ED00E0F51840009117400037
S2144002400C02402000F01F02C0F34710F0B5012812
S2144002504FEA4025194C05EB04030CD1101F032828
S21440026001D90C2A07D1164E0120D6F814719040B9
S2144002703843C6F81401481C04D1012303FA02F29D
S2144002802A51F0BD01201C6F11F0010F00FA02F058
S21440029014BF204324EA000011F0020F4FF0010182
S2144002A0186701FA02F1586F14BF014320EA0101B2
S2144002B05967012101FA02F25A60F0BD000E0E4065
S2144002C00080084001490248024B1847000C0E4087
S2144002D08C04402011084000034B9A69D20502D492
S2144002E04FF480721A61704700060E4010B5054CF8
S2144002F002210520A047234602210620BDE81040E3
S214400300184700BF4502400013B5084B9847084BB6
S2144003109847084C00901023074A08490848A047C9
S214400320084B02B0BDE81040184700BFD902400055
S21440033013154000A90A400028024020000A0E403B
S214400340A8044020ED024000044BD3F80821D20414
S21440035003D44FF48052C3F80021704700060E4085
S21440036010B5054C02217920A047234602217A2069
S214400370BDE81040184700BF4502400013B5084B83
S2144003809847084B9847084C00901023074A08495E
S2144003900848A047084B02B0BDE81040184700BFC9
S2144003A04903400013154000A90A40003802402087
S2144003B0001A0E40E405402061034000044BD3F889
S2144003C00821120702D40822C3F80021704700BF54
S2144003D000060E4010B5054C00212320A0472346BA
S2144003E000212220BDE81040184700BF45024000CB
S2144003F010B5054B9847054B984705490548064BA9
S214400400BDE81040184700BFBD034000D50340007C
S2144004100000034064044020650740002DE9FF418A
S214400420574C584B9847A369DD0402D44FF4805389
S2144004302361A369D80302D44FF480332361524A20
S2144004404FF0FF315320514D536843F400435360FF
S2144004504FF400224E4B5A631A61A8474D4B4FF457
S21440046080124FF0FF3174205A61C3F890205A66CC
S214400470A847A369990002D44FF000532361464B26
S2144004800027464A01930323454900930A230297CF
S2144004904448DFF86881C047434E1023434A3946F4
S2144004A04048B0471023424A08213E48B0471023F0
S2144004B0404A0A213B48B0474FF0FF317E20A847CC
S2144004C04FF0FF311320A8474FF0FF312020A847B8
S2144004D0D4F80831DA0503D44FF48073C4F80031F9
S2144004E002970527344B354A019306233449009733
S2144004F03448C0471023344A00213248B0471023BE
S214400500324A01212F48B0471023314A03212D4853
S214400510B04710232F4A39462A48B04710232E4A60
S21440052006212848B0474FF0FF312120A8474FF01A
S214400530FF314D20A8474FF0FF314C20A8474FF0E1
S214400540FF315E20A8474FF0FF315F20A847234B7E
S2144005509847A3691B0202D44FF400032361204B43
S214400560984720490246204B20489847204B9847BA
S214400570204B9847204B04B0BDE8F041184700BFD9
S21440058000060E40110E400050180E404502400036
S21440059000120E4000140E409C05402048024020A9
S2144005A000C0034070054020C5064000530240206E
S2144005B06302402073024020F8044020830240201B
S2144005C000400640340640208A0240209A024020DE
S2144005D0AA024020BA024020CA024020C50240007B
S2144005E0F512400000C00040F10840006006402080
S2144005F0090340007D034000F103400079064000B7
S214400600836903B118477047C36903B118477047F9
S214400610036A2DE9F14F5C5C0646D0F828800F4609
S21440062004EB4404DFF84C90D1B29346E40008EB68
S214400630040505F1040A5046C84730460C4B984717
S214400640012806D94FEA1B215046C847AB8A0133DA
S214400650AB82AB8A0133AB8258F804302BB13946B3
S214400660304601B0BDE8F04F184701B0BDE8F08F06
S214400670D90D4000C50B400070B50446FF2600204B
S214400680C5B201305655C5B2AB42F9D284F82430D3
S21440069020469DF81030226284F82530059BA362E0
S2144006A0044B984728B9044BA360044B2360044B83
S2144006B0636070BD410D40001106400001064000D9
S2144006C009064000F8B50F46D0F820E0114605462A
S2144006D01EF80720FF2A1AD190F82420002004464E
S2144006E0C6B2964216D995F82520A2421AD304EBF4
S2144006F04406A86A1A460D4BF60030440430984724
S21440070028B92B6ADC55AB6A1E44B082F8BD6FF040
S2144007100C00F8BD1EF806600130FF2E1CBF0134E9
S214400720E4B2DDE76FF01B00F8BD00BF8B0B400066
S214400730EFF31083036072B6BFF35F8F7047BFF36B
S2144007405F8F036883F310887047C36903B1184707
S2144007507047036A03B118477047436A03B11847A6
S2144007607047000010B5054B0446984728B9044B1F
S2144007706360044BA360044BE36010BDA10E4000D1
S2144007804B074000530740005B074000004B1847AC
S214400790810F4000004B1847910F4000012908B5D3
S2144007A00DD004D302290CD06FF00C0008BD0262B5
S2144007B00032054B18BF01229847002008BDC26191
S2144007C0F6E74262F4E700BF5110400010B4024C16
S2144007D0A4465DF8044B604791104000054B10B5A9
S2144007E01C68054B9847054B01462046BDE810401F
S2144007F0184700BFDC024020FD0D4000090E4000B7
S214400800436903B118477047836903B11847704777
S21440081010B5044B0446984718B9034B2360034B66
S214400820636010BD610E40000108400009084000AA
S2144008300368184743681847F0B505681DB90F4B5D
S214400840BDE8F0401847D1F808E02C460026C2F133
S214400850010C6368A768934295BFDB1963449B1AF3
S214400860DB19734507D22368264613B93046044B36
S214400870E6E71C46EDE7A542F8D1E0E76F0B4000FF
S214400880770B40002DE9F04706690546037E0136A2
S2144008904469DA07066110D4037E9B070DD400F145
S2144008A01407DFF84480DFF8449024B16368A268F8
S2144008B0F31A934207D2BDE8F0872B7E43F002033B
S2144008C02B76BDE8F0873846C047237C012B04D101
S2144008D06660324621463846C847D5F814A02046BA
S2144008E0E36898475446E0E77F0B400039084000ED
S2144008F010B5044B044698470020034B2061236004
S21440090010BD00BF411240008508400038B5064B78
S21440091005469847044620B92846044B9847204643
S21440092038BD6FF0100038BDC9124000C1124000FB
S214400930F7B5037E00F1140604460F4643F0010364
S21440094003763046144B9847054638B1237E6FF001
S214400950110003F0FE03237603B0F0BD2269304653
S2144009600E4B39467A609847237E03F0FE03237683
S214400970207E10F00200EFD001A8094B9847237E56
S214400980204603F0FD032376064B984701A8064B06
S21440099098472846E0E700BF610B40003908400012
S2144009A031074000D51240003F0740000346002272
S2144009B008389A62DB6903B118477047034600223D
S2144009C008389A625B6A03B11847704770B50446A8
S2144009D0054BA0F108052C309847236A1BB12846E2
S2144009E0BDE87040184770BDC50B400010B5B0F864
S2144009F04C301446B0F844209A420BD10023816410
S214400A00A0F84C400830838701238362034B984705
S214400A10204610BD6FF01B0010BD00BFA71440005D
S214400A20838FB0F844209A4210B504460AD0026C30
S214400A30591C8187D15C044B98472046034BBDE840
S214400A4010401847024BFAE7A1144000A714400094
S214400A50AF1440002DE9F74305460F4B01A88846E2
S214400A603435164600249847DFF8389028460B4B16
S214400A7098470B4B074601A89847A74201D0B44277
S214400A8003D1A0B203B0BDE8F08308EB04012846CA
S214400A90C8470134F1E700BF31074000EB0B400088
S214400AA03F074000A30B400038B504460D4634309F
S214400AB011461A460C4B984790B9294604F108004F
S214400AC00A4B984770B90A4B63600A4B23600A4B3F
S214400AD0A3600A4BE3600A4B23610A4B636138BD4F
S214400AE06FF00C0038BD00BF8B0B4000F913400080
S214400AF0550A4000ED094000210A4000CD0940005B
S214400B00AD094000BD09400008B50830014B984784
S214400B10002008BD99144000012908B510D004D320
S214400B20022914D06FF00C0008BD826200324FF0EC
S214400B30010118BF01220830084B9847002008BD25
S214400B40426200324FF0020118BF0122F3E7C26250
S214400B5000324FF0030118BF0122ECE7B914400001
S214400B60006800B970478842FAD101207047036890
S214400B700B600160704703680B6001607047036854
S214400B800BB11A68026018467047531E1A4001BFE0
S214400B9043608260C26001600CBF10466FF00C007C
S214400BA070478368C2689A4209D042681340026818
S214400BB0D35C0B70836801338360002070476FF00E
S214400BC009007047C368426813400268D154C3683E
S214400BD081684268591A914288BF9A1A03F1010304
S214400BE088BF8260C36000207047C2688068101A61
S214400BF070470000044B0246196809B9034919605A
S214400C00186802441A607047E0024020180F4020DF
S214400C1000280DDB4309012200F01F00203302FAB2
S214400C2000F0044A42F82300BFF34F8FBFF36F8FA4
S214400C30704700BF00E100E0024BC31A58425841DB
S214400C40704700BF0040064030B56422164C02FB99
S214400C50014301FB02415D68303145609D68856017
S214400C60DD68C5601D6905615D6905659D69456509
S214400C70DD6905661D6AC0F894505D6AC0F8A050EC
S214400C809D6AC0F8D050DD6A1B6BC0F8D450C0F8DF
S214400C90D83000234366013351F8042F0C2BC2662C
S214400CA0F8D1002030BD00BF0C424000426973B509
S214400CB0116B0546D36A0B400193019B5A0102D53E
S214400CC0036800219847019B9B0103D56B68002170
S214400CD028469847019B0126C3F30B030193019CCA
S214400CE0B4FA84F4C4F12004E4B20CB902B070BD86
S214400CF0013C6B692846E4B25C6621469A6E06FA69
S214400D0004F4AB6892B29847019B23EA040401942A
S214400D10019CB4FA84F4C4F12004E4B2E5E7000090
S214400D20014B1868014B1847E4024020AD0C4000C8
S214400D30014B5868014B1847E4024020AD0C400078
S214400D4070B50C461E4B0546084698471D4B014657
S214400D5020469847064680B91B4B6C619C420ED194
S214400D601A4B1D201D601A4B98476969164B9942CD
S214400D700ED003F5203399421FD0304670BD154B38
S214400D809C4205BF114B28204FF0FF305D60EAE7DC
S214400D901D2303F01D005B0901229B0082400A4888
S214400DA003F16043814203F56143C3F8802102D0DA
S214400DB008488142E1D11A60DFE72823E9E700BF0F
S214400DC0390C4000490C400000C00340E40240207B
S214400DD0110C4000004006400220704743B2002BF2
S214400DE009DB01225B0900F01F00403302FA00F0E5
S214400DF0014A42F82300704700E100E0014B5843A7
S214400E00704700BFE09304000139FDD870470000EA
S214400E1007B50E4B01A898470D4AD2F8883043F4E0
S214400E207003C2F88830BFF34F8FBFF36F8F094B04
S214400E3001A89847084A136823F4706343F4C063D4
S214400E401360064B984703B05DF804FB310740003B
S214400E5000ED00E03F074000000C0E406D114000E2
S214400E60074B402201611860064BC3F88020BFF351
S214400E704F8FBFF36F8F0020C3F880211A607047F2
S214400E80EC02402000E100E0044B186803699B68D0
S214400E90DB0702D5036803B118477047EC024020D1
S214400EA08B6943F0010310B501608B618B69DB07EA
S214400EB0FCD58B6943F002038B612B4B994245D19D
S214400EC02A4B00242A4A83618B698B6140F604537F
S214400ED0CB614FF45463CB6040F60B338B64254BA9
S214400EE09BB243F4C023C1F8A030234BC1F8BC40AA
S214400EF09BB2C1F8C84043F0C063C1F8C03093B25B
S214400F0043F40033C1F8F0302B23C1F8803002F1AF
S214400F1010039BB243F40033C1F8843002F1180347
S214400F209BB243F40033C1F88830C1F89040134B6D
S214400F3090620822C3F88420BFF34F8FBFF36F8FB1
S214400F40C3F884215A6001220368DA6503689A6907
S214400F5022F002029A619A6922F001029A61986927
S214400F6010F00100FBD110BD0000034000004020FF
S214400F70F00240207C064020DC06402000E100E0F5
S214400F8002680020936923F00103936170470000D4
S214400F9002680B46D2F8A4104906F0B5054685B05F
S214400FA047D02749D2F8A4408A4245D1C4F3052405
S214400FB0244A21018F183FD08858C0F3807010F023
S214400FC0FF0F30D058738858C0F31C008A58EE463E
S214400FD01860C2F3407212F0FF0F18BF1A711A4A17
S214400FE002F1100C1068083252F8041C764662452E
S214400FF003C6B646F6D17A6804A99868C2F3034297
S2144010000A4407F1080112F8102C1A730F4B984740
S2144010102A680020D2F8A83023F03F031C43C2F8C9
S214401020A84005B0F0BD002058738858C0F38A40E9
S214401030CCE76FF00900F4E76FF01B00F1E700BF64
S214401040000003407C064020D44240003D1940004A
S21440105031B901684B6D23F001031A434A65704766
S21440106001290BD101684B6D23F4007343EA4222F9
S2144010704FF0FF334A65C1F8E0307047022906D189
S2144010800268536D23F4FF739B059B0D53657047B1
S21440109030B58069EAB909B2C2681BB942F8213056
S2144010A0002030BD586842F82100186852F82130B8
S2144010B060F31A43022042F8213052F8213060F3A0
S2144010C09F73012042F8213052F8213060F3DD63EF
S2144010D0E4E7012AE4D109B2006900EBC10413B980
S2144010E040F83130DCE71D6840F8315050F8315058
S2144010F062F35F75022240F831505B686360636854
S21440110062F39F736360CBE738B5174B9C6A2368DE
S2144011101D6DE80702D5A36820469847AA0502D564
S214401120636820469847AB0103D5E3680321204611
S2144011309847E80103D5E3680021204698472A02ED
S21440114009D522682046E368526C12F0200F14BF7F
S2144011500221012198472B0703D5E3680421204646
S214401160984723681D6538BDF0024020274B284A23
S214401170196A21F002010A431A629A6ED107FCD519
S2144011801A6A42F09B7242F480321A629A6A22F0DD
S214401190FF6222F4E0229A621E4A9A629A6E920790
S2144011A0FCD54FF47102DA619A6E5006FCD51A6B84
S2144011B042F400521A639A6E1107FCD51A6B22F05D
S2144011C070021A639A6E1207FCD51A6B22F44072AC
S2144011D042F480721A639A6E1007FCD51A6B22F09E
S2144011E0030242F002021A639A6E1107FCD5B3223C
S2144011F05A659A6E9204FCD54FF400521A6040F23B
S21440120001429A6320221A60704700BF00060E40D3
S214401210013E3700013F182000280DDB430901221C
S21440122000F01F00203302FA00F0044A42F8230080
S214401230BFF34F8FBFF36F8F704700BF00E100E0F2
S21440124010B51B4C236899422FD1A368C1601A047D
S21440125048BF43F414234B6063694B61A3698B61B9
S214401260E3680B63E369CB6110234B622369C1F8E3
S214401270D830104B994204BF0F4B18600F4B94F96F
S2144012800400984794F90430002B0CDB03F01F0150
S2144012905B0901229B008A4003F1604303F56143EA
S2144012A0C3F880211A60002010BD00239B68FFDE33
S2144012B01400402000C000401C034020191240008B
S2144012C0C36805221A607047C368186AC0F30040B6
S2144012D070470000054BC1681A68914202D11879E0
S2144012E0034B184700231B79FFDE00BF1400402045
S2144012F0DD0D400000207047044B1868C3681B6A29
S214401300DB0601D503681847704700BF1C03402022
S21440131000280DDB4309012200F01F00203302FAAB
S21440132000F0044A42F82300BFF34F8FBFF36F8F9D
S214401330704700BF00E100E08369024659698907AB
S21440134006D51969890703D50221D960036818476D
S2144013505969880508D51969890505D54FF400717E
S214401360D96093681046F2E75969C80710D51969DD
S214401370C9070DD5596911F0E00F04D09A694FF4AA
S21440138080721A607047996910465368C9B2184708
S214401390596911F0E00F04D04FF480711960D3689A
S2144013A0E0E770470E4B984212D003F50073984220
S2144013B010D003F5805398420ED003F50073984240
S2144013C00CD003F5007398420CBF0420FF207047F2
S2144013D00020704701207047022070470320704766
S2144013E000080E4008B5034B9847831E58425841A4
S2144013F008BD00BFA513400010B51F4B0446084665
S21440140098471E4B0C22C1F8E430AC230B604FF4D7
S21440141080730B601A4B02FB003042684A60826859
S2144014200A62184AA16191421A461FD1164B1C60A7
S214401430164B08469847042896BF1318FF241C7E70
S214401440134B61B20846984700290DDB012304F090
S2144014501F0403FA04F44B099B0003F1604303F5B1
S2144014606143C3F880411C60002010BD094B99427F
S21440147004BF054B5C60DBE7E51340000052415576
S214401480E4424000000A0E4020034020A5134000DE
S21440149011134000001A0E40836950221A607047AC
S2144014A08369D9617047836902229A60704783696D
S2144014B04FF400729A60704721F00203A2B133B92C
S2144014C0836902229A604FF400729A60704701293D
S2144014D002D1836999607047032919D1826993685C
S2144014E043F0E0039360704733B983690222DA60C1
S2144014F04FF40072DA607047012902D18369D960DF
S2144015007047032904D18269D36843F0E003D3606F
S2144015107047002070470000014B1868014B184781
S2144015202003402039134000014B5868014B1847B0
S2144015302003402039134000034B1A7812B1034B66
S2144015401868704758687047280340203800402085
S214401550074B1A783AB15A6802325A601A7882F0C3
S21440156001021A70704703490A6802320A60F5E7BA
S214401570280340203800402073B54F25104E114CAC
S21440158001220DF1070130460F4B984708B1013D47
S21440159001D102B070BD0D4B9847237B9DF80720C4
S2144015A07E2B04EB0301A060D4BF013300234A73B3
S2144015B02373002AE4D10123227384F88D30DFE7B9
S2144015C0E4054020280340203508400039154000F7
S2144015D073B54F25134E144C01220DF107013046CA
S2144015E0124B984708B1013D01D102B070BD104B77
S2144015F0984794F894309DF807207E2B04EB03011F
S214401600C4F89000D4BF013300230A2A81F89520FD
S21440161084F8943001BF012384F81531002384F800
S2144016209430D9E7A80440202803402035084000DD
S214401630391540002DE9F34116460278044688469F
S214401640732A0DD005D8533A012A09D902B0BDE80D
S214401650F081742AFAD1184604222249224B984730
S21440166002ADA01C214F45F8044D2946B8474444D6
S214401670B0600198A042E9D829460430B847706067
S2144016800198A042E2D80A2229460630DFF8608058
S214401690C047F0600198A042D8D829460330B847E2
S2144016A030610198A042D1D829460430B8477061CD
S2144016B00198A042CAD80A2229460630C047B061DF
S2144016C00198A042C2D80A2229460530C047F06198
S2144016D00198A042BAD80A2229460730C04730624D
S2144016E0B4E700BF01434000310840009125400068
S2144016F02D274000044A936B03F48073D94301F4CA
S214401700807111635363704700120E4010B500237A
S214401710044C054804EB4302191808339160802BAB
S214401720F8D110BDEC0740203C074020094B0A4842
S21440173093F816210E2A00EB0210D4BF0132002285
S21440174083F8162193F817210F2A9CBF013283F89D
S2144017501721704728034020EC074020094A936B26
S21440176003F48073D94301F4807110B504461163C5
S2144017705363054B9847054B01462046BDE810404D
S214401780184700BF00120E402D1740009507400036
S21440179083B53A4B00259847394C3A4A00213A4897
S2144017A0A0473A4A01213848A047394B364898471F
S2144017B0384B4FF400622946374C1A6132485A6318
S2144017C02A466B4600950195A047344C0123344A7F
S2144017D004F58E71C4F8243184F82C313148324BEC
S2144017E0C4F828219847314B2E489847304E294612
S2144017F0304A3148B047314A29463148B047314DE2
S2144018002D48A8472E48A8472F4B9847DFF8A88072
S2144018104FF400222D4B2A4E2D4F5A6394F8153123
S2144018204BB143462B4A94F894102B482B4DA8476F
S214401830002384F8153194F88D3043B13346284A56
S214401840217B2848254DA847002384F88D30312336
S214401850254D0222254984F830316623304684F8E7
S2144018603131A847394604224046A8470422394623
S2144018703046A84764201E4B9847CFE7D501400026
S2144018809D0740005D17400064044020F516400068
S2144018908D07400000140E40CD074000280340202E
S2144018A05115400060064020310940000D094000B7
S2144018B0190B4000D1154000A8044020791540007F
S2144018C0E4054020090B40000D17400000120E4072
S2144018D001434000EC084020BD0340203516400040
S2144018E0C4074020350340203108400058044020BB
S2144018F0DD07400070B50D4E0D4CA41BA41000250E
S214401900A54209D10B4E0C4C02F066FEA41BA41057
S2144019100025A54205D170BD56F8253098470135BB
S214401920EEE756F8253098470135F2E7E4454000A3
S214401930E4454000E4454000E845400010B5431EFD
S2144019400A44914200D110BD11F8014B03F8014FF3
S214401950F7E702440346934200D1704703F8011B61
S214401960F9E72DE9F0410F46904601F0E9FC0446C0
S2144019700D46B8F1000F11D0C7F30A53C3F16B03FD
S214401980002B0BDD1B0503F17F55002405F54015A4
S21440199022462B4602F066F804460D462046294667
S2144019A0BDE8F081000000002DE9F04F99469FB059
S2144019B00023804648460C4615921A9301F0ECF9EF
S2144019C00746006801F064FE4FF0000A05464FF0F7
S2144019D0000B1994199B1A780D2A33D8092A37D246
S2144019E0002A3FD000230993199E3378302B40F0CD
S2144019F001817378582B01D0782B6BD1099B0193CA
S214401A001AAB0093CDF808901BABAA4A19A94046DA
S214401A1000F0ECFE10F00704054605D0062C2BD14E
S214401A200136002319960993159B002B40F09985A3
S214401A30099BE3B152460BF10043104619461FB0CE
S214401A40BDE8F08F2B2A06D02D2A13D0202AC9D1E4
S214401A5001331993BEE7002209925A1C19925B780B
S214401A60002BC1D1159B1994002B40F07885524627
S214401A705B46E2E70122EFE71A9A3AB135211CA805
S214401A8001F04BFD1A99404601F0CEF9013C042C7A
S214401A9008D8DFE804F00C03171A0C00DDF870A035
S214401AA0DDF874B02907BFD54BF0004BBCE71D9B53
S214401AB01B9ADDF870A023F4801302F2334243EA07
S214401AC0025BEFE7DFF8F8B1ECE76FF0004B4FF062
S214401AD0FF3AE7E7199B5A1C19925B78302BF9D0EE
S214401AE0002BA1D001230893199B0A93002305934A
S214401AF0069304930A2219980678A6F13003D9B2C1
S214401B00092979D92A46396801F0CAFD002800F02B
S214401B1085800020049D334602460146652B02D050
S214401B20452B40F0EF8025B910B9089B002B99D083
S214401B300025199C631C199363782B2B00F0CF80EB
S214401B402D2B00F0D28000260796A3F13006092EF2
S214401B5000F2D780302B00F0CA80A3F13106082E61
S214401B6000F2D080A3F1300E199B4FF00A0C1F46AE
S214401B70199B5E1C19965B78A3F13009B9F1090FE1
S214401B8040F2BA80F61B082E44F61F6902DCF14587
S214401B90A8BFF146079E0EB1C9F10009002D40F0DE
S214401BA0D78000287FF440AF089A002A7FF43CAFE5
S214401BB000297FF457AF4E2B00F0AD8000F3A58090
S214401BC0492B7FF44FAF3C4919A801F03FF8002855
S214401BD03FF448AF199B3949013B19A8199301F0C6
S214401BE035F810B9199B01331993DFF8D4B04FF08C
S214401BF0000A19E7002376E704990829D5BF069915
S214401C00059902FB013302FB0133D4BF06930593CB
S214401C10049B01300133049319906CE7199B5A19C1
S214401C201992049A5B5D002A54D11046302B2AD074
S214401C30A3F13102082A00F29984199A0A920246C0
S214401C4000200546303B00F1010111D00A4400EB6C
S214401C50050C29460A2661451BD12844082800F170
S214401C6001052FDC06980A2101FB0033069300216C
S214401C70199B581C19905B780846A3F13001092936
S214401C80E0D901214AE7199B5A1C199201305B782A
S214401C90CCE7013101F1FF3EBEF1080F03DC069FA1
S214401CA077430697D7E71029DEBF059F774305970A
S214401CB0D1E700BF144340000543400008434000BE
S214401CC00000F07F102DDFBF05980A2101FB00338E
S214401CD00593CCE70246049DCFE7012124E7002385
S214401CE00793A31C1993A3782FE70123F8E7199BC2
S214401CF05E1C19965B782DE70CFB0E3EAEF1300E5F
S214401D0036E719944FF0000948E7692B3FF45BAF7C
S214401D106E2B7FF4A7AE8C4919A800F097FF0028D9
S214401D203FF4A0AE199B1B78282B0ED11CAA8749DE
S214401D3019A800F09EFF052807D11D9BDDF870A06E
S214401D4043F0FF4B4BF4E00B6EE6DFF810B24EE785
S214401D50049B0698002B08BF2B46102D2C46A9EB5B
S214401D600209A8BF1024049301F006FE092C8246FF
S214401D708B4613DD764B03EBC40353E9122301F085
S214401D8071FE064605980F4601F0F6FD02460B46E4
S214401D903046394601F0B4FC82468B460F2D36DC81
S214401DA0B9F1000F3FF440AE24DDB9F1160F0BDC5D
S214401DB0674D05EBC909D9E9000152465B4601F07B
S214401DC051FE82468B462FE6C5F1250399451EDC1B
S214401DD05F4CC5F10F0504EBC501A9EB050552465E
S214401DE05B46D1E9000104EBC50401F03BFED4E9B3
S214401DF00023E4E719F1160F09DB554DA5EBC90999
S214401E00D9E900235046594601F056FFD9E72C1B26
S214401E104C44002C73DD14F00F030AD04C4901EB00
S214401E20C30152465B46D1E9000101F01BFE8246E3
S214401E308B4634F00F0454D0B4F59A7F27DD4FF02C
S214401E400009CDF81090CDF81C90CDF818902223BC
S214401E50DFF80CB1C8F800304FF0000A079B002BA3
S214401E603FF4E2AD1A99404600F0DEFF0699404640
S214401E7000F0DAFF0499404600F0D6FF0799404646
S214401E8000F0D2FF4946404600F0CEFFCCE50023A6
S214401E90304E2411504659461F46012C24DC0BB1C7
S214401EA082468B462B4BABF1547B03EBC70752461F
S214401EB05B46D7E9000101F0D5FD21F000438B4693
S214401EC00A461B0D24491B058B428246B7D8A1F50E
S214401ED080118B4286BFDFF88CB04FF0FF3A02F19C
S214401EE0547B0023059370E0E20704D5D6E900232F
S214401EF001F0B8FD0123013764100836CDE7F0D075
S214401F00644214F00F020AD0114B03EBC203504652
S214401F105946D3E9002301F0CFFE82468B46241172
S214401F20DFD01F2C20DD4FF00009CDF81090CDF803
S214401F301C90CDF8189022234FF0000A4FF0000B6B
S214401F40C8F800308AE700BF0E43400028434000F0
S214401F5000444000D84340000000A07C0000F8FF4A
S214401F600000F07FFFFFEF7F14F0100318BF6A23D6
S214401F709F4E0593504659460023002C00F3068199
S214401F800BB182468B46059BBBB1CBF30A53C3F1DC
S214401F906B03002B594610DD1F2B40F30181342B79
S214401FA0DEBF203B4FF0FF3202FA03F34FF0000A49
S214401FB0CCBF4FF05C7B03EA010B00220023504667
S214401FC0594601F0B7FF0028ADD1069B0093049A0E
S214401FD00A992B46404600F079FF079000283FF4C8
S214401FE02EAFB9F1000FC9F10003A8BF00230E932E
S214401FF029EAE9734FF000090F93CDF81090079B3C
S2144020004046596800F0DCFE069000283FF41FAFBB
S214402010079B1A69023203F10C0192000C30FFF75D
S2144020208DFC1CAB01931BAB009352465B4640466F
S214402030CDE90AAB01F0FAF91A9000283FF407AF51
S2144020400121404600F0CEFF0490034600283FF4AE
S214402050FEAE1B9D1C9A002DABBF0E9B0F9B0F9C8C
S2144020600E9EACBF5E195C1B059BED1A1544614B7A
S214402070013D9D42C2F1360280F2A4805B1B1F2BBD
S214402080A2EB03024FF0010700F3918007FA03F337
S21440209014930025B718059BBE4214441C4433468F
S2144020A0A8BF3B46A342A8BF2346002BC2BFFF1A89
S2144020B0E41AF61A0E9BBBB11A460499404601F044
S2144020C027F8049000283FF4C2AE01461A9A4046CC
S2144020D000F091FF089000283FF4B9AE1A994046A8
S2144020E000F0A2FE089B1A93002F6FDC0F9B002B7C
S2144020F075D1002C08DD22460699404601F056F878
S214402100069000283FF4A3AE002E08DD3246049920
S214402110404601F04BF8049000283FF498AE069AEB
S2144021201A99404601F0ADF8814600283FF48FAE3C
S2144021300024C3680499C460089301F088F8A0425C
S2144021405ADA089BF3B9BAF1000F1BD1CBF313034D
S214402150C3B92BF000431B0D1B05B3F1D66F11D945
S214402160D9F814301BB9D9F81030012B0ADD49468E
S2144021700122404601F01AF80499814601F067F8BA
S21440218000286ADC059B002B74D16BE6E20704D579
S214402190D6E9002301F066FC012364100836ECE61D
S2144021A04FF0FF3202FA03F303EA0A0A05E7C5F1E5
S2144021B07F4505F57F0505F57B45E23507FA05F5CC
S2144021C0149767E701230025149363E73A461A9964
S2144021D0404600F0EBFF1A90002887D137E60F9A6A
S2144021E00699404600F094FF0690002881D12EE6DE
S2144021F04043400002FCFFFF40F08680089ACBF345
S214402200130332B3AC4A9342594652D1059B5046CB
S214402210D3B1AA4A0A40B2F1D46F4FF0FF3416D871
S214402220120DC2F16B0304FA03F3834241D1A44A70
S214402230914202D101333FF40AAEA04B0B4003F566
S214402240801B4FF0000A9DE74FF0FF33EDE7234633
S214402250EBE773BBBAF1000F2BD12BF00043059A86
S2144022601B0D1B05E2B1B3F1D66F19DCB3F15C7FF1
S2144022707FF761AE934B0D9300230C93504659461F
S214402280DDE90C2301F0EEFB82468B4600297FF405
S214402290E9AD00287FF4E6AD2223C8F80030E1E53A
S2144022A0A3F580136FEA135B6FEA0B5B4FF0FF3AC0
S2144022B068E79DB115EA0B0F3FF464AF089B059A9B
S2144022C05046594673B1FFF74CFB02460B46DDE9D4
S2144022D00A0101F015FA82468B4653E7149B13EA2F
S2144022E00A0FE9E7FFF73DFB02460B46DDE90A0128
S2144022F001F004FA0022002382468B4601F01AFEC3
S21440230000287FF418AE3DE70499484601F0DDF812
S21440231000224FF0804306460F4601F01FFE00287D
S21440232070D0089B002B43D0674F0026664D634B0A
S2144023300BEA03031493149A644B9A4240F0CE80FF
S214402340DDE90A23ABF1547B50465946CDE90C23D0
S21440235000F0F6FF02460B463046394601F082FB57
S21440236052465B4601F0CCF9544A594B0A409A42D1
S21440237082465DD90D9A03F154739A4203D10C9B61
S21440238001333FF464ADDFF838B14FF0FF3A1A99A5
S214402390404600F049FD0699404600F045FD049948
S2144023A0404600F041FD4946404600F03DFD26E6E9
S2144023B0BAF1000F18D1CBF31303E3B90022424B16
S2144023C03046394601F0C0FDC8B90022414B304680
S2144023D0394601F047FB04460D4605F10043169486
S2144023E01793DDE91667A2E7BAF1010F03D1BBF1F7
S2144023F0000F3FF4A0AD0026374F002496E7089C18
S214402400344DEAE7334B00223046394601F02AFB8A
S214402410089B04460D4633B901F1004310901193D2
S214402420DDE9106783E702460B46CDE91023F7E760
S21440243001F1547B059B002BA9D12BF000431B0DCB
S214402440149A1B059A425E46A1D12946204601F0C1
S214402450B9FD01F0A1FA0B4602462946204601F096
S2144024604DF9089B04460D4633B9BAF1000F03D127
S214402470CBF31306002E6CD00BA3D3E900232046E3
S214402480294601F061FD00287FF4ECAC08A3D3E9AF
S21440249000232046294601F075FD00283FF477AF1B
S2144024A0E0E400BFAFF300809535A094FFFFDF3F28
S2144024B035E5AF350000E03FFFFF0F000000F07F3E
S2144024C0FFFFEF7F000050390000F03F0000E07F44
S2144024D0FFFF9F7C0000E03F0000F0BF059B13B36A
S2144024E0149BB3F1D46F1ED825A3D3E9002320460E
S2144024F0294601F033FD90B12946204601F08AFD79
S214402500002808BF012001F037FA089B04460D4614
S214402510D3B901F1004312901393DDE91267149A80
S21440252007F1D6639F1ADDE90A0100F009FF02466B
S2144025300B463046394601F095FADDE90A2301F0AC
S214402540DFF882468B4675E702460B46CDE91223F6
S214402550E3E70DA3D3E9002301F0F6FC9DE7002353
S2144025600993159A199B1360FFF762BA652B4FF0D3
S21440257000023FF4B2AB15460121FFF7D1BA00BFC7
S2144025800000C0FFFFFFDF419535A094FFFFCF3F1F
S2144025902DE9F041214E224A3468236A002B08BFB9
S2144025A013460A4601462046FFF7FEF905460C4606
S2144025B002460B462846214601F0EEFC20B100209C
S2144025C0BDE8F04101F060B82146284601F042FDE2
S2144025D020F0004807461349404601F001FEC8B9BE
S2144025E01049404601F0DEFDA0B924F000444FF00B
S2144025F0FF320D4B2846214601F0CEFC38B94FF04D
S214402600FF32094B2846214601F0A8FC10B133683A
S21440261022221A603846BDE8F08100BF3C004020C8
S214402620A0004020FFFF7F7FFFFFEF7F2DE9F84FA0
S2144026308046894692461F468B465D460A9815F860
S214402640014B00F0A6FB2044467816F008060BD156
S2144026502D2C0BD12C7801260BF1020567B1102FDB
S21440266014D1302C0AD011E0AB46E6E72B2C04BF41
S2144026702C780BF10205F1E7302C27D12B7803F0AC
S214402680DF03582B4BD16C7810270235002E0CBF39
S2144026906FF000414FF000410022B1FBF7FE1046BC
S2144026A007FB1E1CA4F13003092B11D81C46A74279
S2144026B01DDD531C07D0864516D301D1A44513DB38
S2144026C000FB0740012215F8014BEBE70A27DDE740
S2144026D0A4F14103192B01D8373CE8E7A4F1610384
S2144026E0192B04D8573CE2E74FF0FF32EBE7531C78
S2144026F008D12223C8F800300846BAF1000F07D1A7
S214402700BDE8F88F06B14042BAF1000F0CD022B1B6
S214402710013DCAF80050BDE8F88F4D46F9E7302431
S214402720002FB3D10827B1E7BDE8F88F084B37B57F
S2144027301C68084D236A002B08BF2B46009313469F
S2144027400A4601462046FFF771FF03B030BD00BF82
S2144027503C004020A0004020F0B506694B11B34233
S21440276000F114052BDA11F01F0105EB860605EB88
S214402770830208D12946B2420B4610D252F8043B97
S21440278041F8043BF7E755F82340C1F1200E0432E8
S214402790CC402B46B24208D31C6004B104335B1BCA
S2144027A09B10036103B94361F0BD176807FA0EF743
S2144027B03C4343F8044B52F8044BCC40EAE72B46E4
S2144027C0EDE7A0F13003092B02D82038C0B270479D
S2144027D0A0F16103052B01D84738F7E7A0F1410384
S2144027E0052B01D82738F1E7002070472DE9F04F38
S2144027F08BB08A46029016980693904600F0CCFA24
S21440280003680393184600F043FF039B019003447C
S2144028104FF0000B13F8013C0793DAF80030023310
S2144028201F4613F8010B30286CD0FFF7CAFF04464A
S21440283000286AD1019A0399384600F031FF0028F3
S21440284066D1019BF85CFE18FFF7BBFF002862D0FC
S2144028503346187830281F4603F10103F9D0FFF7B6
S214402860B0FFB0FA80F56D0934464FF0010B3A469A
S214402870164601323078FFF7A4FF0028F8D1019AB7
S2144028800399304600F00CFF50B954B9019BF41838
S2144028902246164601323078FFF793FF0028F8D1DB
S2144028A00CB1A41BA4003378502B01D0702B40D120
S2144028B073782B2B35D02D2B2FD0711C4FF0000961
S2144028C00878FFF77EFF431EDBB2182B31D8A0F105
S2144028D0100211F8010FFFF774FF431EDBB2182BEE
S2144028E022D9B9F1000F00D052421444CAF8001061
S2144028F00DB3BBF1000F14BF0027062738460BB0B8
S214402900BDE8F08F0BF1010B8AE700252C46AEE7B9
S2144029103E460125C7E70446FBE74FF00109B11CD8
S214402920CEE74FF00009FAE70A2303FB0202103A0B
S214402930CFE73146DAE7F31B013B2946072B49DC54
S214402940029800F03DFA019B00F114094FF0000B8D
S214402950C3F101030546CDF81090DA460893B74216
S2144029603BD3049840F804ABA0EB090080102861E4
S2144029704701504600F0E8FAD8F800603F1AB742E0
S21440298064DDBF1B3946284600F0E1FD824678B13B
S2144029907B1E591103F01F024FF0010A59F821100F
S2144029A00AFA02F20A4203D0534546DC4FF0020AC6
S2144029B039462846FFF7D0FE3C44D8F808309C42BB
S2144029C052DD2946029800F02FFA149A002313602D
S2144029D0A32793E701315B10B0E7731E0593079A70
S2144029E016F8013C934218D0BBF1200F07D1049B48
S2144029F0C3F800A004334FF0000A0493D34616F8F9
S214402A00010CFFF7DEFE00F00F0000FA0BF04AEA7A
S214402A10000A0BF1040B059B0DE0059B089A134436
S214402A209F42E1D81846019A0399099300F038FE70
S214402A30099B0028D8D11E4691E7B91E284600F0CB
S214402A4086FD0028B2D04FF0030AB1E709DAF71B3B
S214402A5029463A46029800F0A9FBE41B054600F1D9
S214402A6014094FF0000AA8E7D8F8040084426ADA4E
S214402A70041BA6422EDCD8F80C30022B22D0032BA7
S214402A8024D0012B15D1A64213D1012E0BDC069A79
S214402A90D8F80430136001232B61C9F80030149B2A
S214402AA062271D602AE7711E284600F050FD002868
S214402AB0EDD12946029800F0B7F9149A0023136026
S214402AC050271BE7159B002BE1D0F2E7159B002B08
S214402AD0DDD1EEE7671EBAF1000F31D127B1394696
S214402AE0284600F034FD82467A11012307F01F077E
S214402AF003FA07F759F8223021461F42284618BFE6
S214402B004AF0020A361BFFF727FED8F80440022791
S214402B10BAF1000F45D0D8F80C30022B15D0032B55
S214402B2017D0012B09D11AF0020F06D0D9F8003081
S214402B304AEA030A1AF0010F0ED147F0100730E0B8
S214402B404FF0010AD0E70127E2E7159BC3F10103E6
S214402B501593159B002BF0D0D5F8109005F1140373
S214402B604FEA890A03EB0A0100201A68B2F1FF3FD8
S214402B701CD001321A60022F05F1140338D1D8F860
S214402B800020013A96420AD17111012206F01F0632
S214402B9053F8213002FA06F61E4218BF174647F091
S214402BA02007149B1D60069B1C60A7E643F8040B99
S214402BB09942DAD8AB68994512DB696802980131C8
S214402BC000F0FEF82A69023205F10C0183469200B5
S214402BD00C30FEF7B3FE2946029800F025F95D4614
S214402BE02B695A1C05EB83032A6101225A61C2E70E
S214402BF02A6991450BDA01212846FFF7ADFDD8F842
S214402C00083001349C423FF7DCAE0127C7E716F098
S214402C101F06FAD09A44C6F120065AF8040C00F073
S214402C2093F9B042E7DBF0E7C2F10802920070B5D4
S214402C30C2F120064368046803FA06F52C43D340E5
S214402C40046040F8043F8842F4D370BD30B5036852
S214402C5011F8014B013314B90360012030BD1A78D6
S214402C60A2F14105192D98BF2032A242F0D0002093
S214402C7030BD2DE9F04F0B6801685F1102EB870706
S214402C8013F01F0387B018BF043700253E1F824647
S214402C909046029347F8045CB14634460195AB46ED
S214402CA04A784B1C039342B3104605910492FFF7B3
S214402CB088FD002843D1049A0599202A18D8019BFC
S214402CC09B4513DD4C4506D2072D04DC2A46494673
S214402CD02046FFF7A9FF444544D90023A4F1040940
S214402CE044F8043CCDF804B04C461D460399D7E75B
S214402CF0292A4AD10231CAF80010BBF1000F44D04D
S214402D004C4506D2072D04DC2A4649462046FFF7A6
S214402D108BFF444528D9434654F8042B43F8042BEC
S214402D20A642F9D2002243F8042B9E42FBD23368D7
S214402D301BB9464527D101233360052026E00135DF
S214402D40082D0BF1010B06DD4445CFD9002344F88E
S214402D50043C0125043C226800F00F0040EA0210C3
S214402D602060C3E70825C1E7029B002BDFD04FF069
S214402D70FF32C3F1200322FA03F357F8042C1A401B
S214402D8047F8042CD3E7043ED1E7042007B0BDE85B
S214402D90F08FD0F8EC007047F030704782B001B941
S214402DA001A942B14BB113780B601278101C18BFC2
S214402DB0012002B070471046FBE76FF00100F8E7CD
S214402DC070B5456A04460E463DB9102000F088FCB2
S214402DD06062456085600560C560656AEB6883B182
S214402DE0636ADB6853F82600B8B9012101FA06F594
S214402DF06A1D9200204600F0CBFB60B146608560BD
S214402E000EE021220421204600F0C2FB636AE860FF
S214402E10DB68002BE4D1002070BD026843F8262012
S214402E2000230361C36070BD70B5446A06460D4614
S214402E303CB9102000F054FC70624460846004602A
S214402E40C4603DB1736A6A68DB6853F82210296033
S214402E5043F8225070BD2DE9F0410D691F460646E5
S214402E600C4601F1140E0023DEF8000081B202FB8E
S214402E7001710F0C000C02FB007089B2013301EBAC
S214402E8000419D424FEA10474EF8041BECDCD7B198
S214402E90A3689D4212DB616830460131FFF790FF20
S214402EA02269023204F10C01804692000C30FEF793
S214402EB045FD21463046FFF7B7FF444604EB850301
S214402EC001355F6125612046BDE8F0812DE9F84374
S214402ED00C4615461F4609220833064693FBF2F376
S214402EE0002101229A4220DB3046FFF769FF089B0B
S214402EF04361092D4FF00103036119DD04F109090F
S214402F00C8462C4418F8013B0146303B0A2230465E
S214402F10FFF7A1FFA045F5D1A5F108044C442D1BB1
S214402F206319BB4207DBBDE8F88352000131D9E79D
S214402F300A340925F3E714F8013B0146303B0A22E0
S214402F403046FFF788FFEBE7020C12040346B2B99F
S214402F500304102013F07F4F04BF1B02083013F009
S214402F60704F04BF1B01043013F0404F04BF9B005A
S214402F700230002B06DB5B0003D501307047002093
S214402F80E8E720207047036813F0070201460BD09D
S214402F90DA0723D4980749BF5B089B0801200B60DB
S214402FA05CBF0B600220704798B2A8B91B0C10207B
S214402FB013F0FF0F04BF1B0A08301A0704BF1B0993
S214402FC004309A0704BF9B080230DA0702D45B0835
S214402FD006D001300B6070471046E9E70020704786
S214402FE02020704710B50C460121FFF7E9FE01226C
S214402FF04461026110BD2DE9F74F14460A69236902
S2144030009A42B8BF0B468946BCBFA1461C46D9F873
S2144030101070D4F810A0D9F80830D9F8041007EB8F
S2144030200A069E42C8BF0131FFF7CAFE00F11405EA
S21440303005EB86082B460022434516D304F11402BE
S21440304009F1140102EB8A0301EB87070193019C07
S214403050944213460CD8002E03DD58F8043D002B4E
S21440306054D0066103B0BDE8F08F43F8042BE3E785
S214403070B3F800A00432BAF1000F20D0AE4689461D
S2144030804FF0000C59F8044BBEF800B0A3B20AFB50
S21440309003B34FEA144BDEF8004063444FEA144C47
S2144030A00AFB0BC404EB13449BB243EA04434F456C
S2144030B04FEA144C4EF8043BE4D8CEF800C032F841
S2144030C0029CB9F1000F1FD02B68AE468C464FF0DD
S2144030D0000ABCF80040BEF802B009FB04B4A244A3
S2144030E09BB243EA0A434EF8043B5CF8043BBEF806
S2144030F000401B0C09FB034303EB1A4367454FEAAA
S214403100134AE6D8CEF800300435A0E7013EA2E7E1
S2144031102DE9F843154612F0030206460F4607D03F
S214403120013A214C002354F82220FFF794FE07462C
S214403130AD1035D0746A3CB9102000F0D1FA7062F8
S214403140446084600460C460D6F82480D8F80840A0
S2144031504CB940F271213046FFF744FF0023C8F8CF
S2144031600800044603604FF00008EB070AD53946CE
S21440317022463046FFF73FFF394681463046FFF746
S21440318053FE4F466D100BD0206838B92246214674
S2144031903046FFF730FF2060C0F800800446E4E782
S2144031A03846BDE8F88300BFC84440002DE9F047E4
S2144031B00C464FEA621A236949680AEB0309A3687A
S2144031C00746164609F10105AB4231DB3846FFF7A4
S2144031D0F7FD0022804600F11403114652452ADBD3
S2144031E020692AEAEA7A04F1140116F01F0203EB7A
S2144031F08A0301EB800E22D0C2F1200C00200E681C
S2144032009640304343F8040B51F8040B8E4520FAA1
S2144032100CF0F4D8186008B109F10205013D3846B3
S214403220C8F810502146FFF7FFFD4046BDE8F0873E
S21440323001315B00C8E743F822100132CEE7043B79
S21440324051F8042B43F8042F8E45F9D8E6E7036976
S2144032500A699B1A30B50CD1920014301431841888
S214403260114454F8045D51F8042D954203D005D31B
S2144032700123184630BDA042F3D3FAE74FF0FF33A0
S214403280F7E72DE9F0470D4607461146284614460F
S214403290FFF7DDFF061E08D131463846FFF790FDA2
S2144032A0012303614661BDE8F087A4BF23462C4650
S2144032B038466168A6BF1D4600260126FFF780FDFA
S2144032C02B69C660266905F1140904F1140202EB65
S2144032D0860709EB830800F114054FF0000C52F8FE
S2144032E004AB59F8044B1CFA8AF1A3B2C91A230C52
S2144032F0C3EB1A4303EB214389B24FEA234CC8453C
S21440330041EA0343964645F8043BE8D8BE4505D314
S21440331055F8043D8BB10661BDE8F0875EF8041BA6
S2144033201CFA81F31A1402EB11429BB243EA0243A1
S2144033304FEA224C45F8043BE8E7013EE8E7000048
S214403340104B0B40A3F15073002B02DD00201946B2
S21440335070475B421B15132B4FF000004FF00001E7
S21440336004DC4FF4002242FA03F17047143B1E2B54
S2144033704FF00102DABFC3F11F0302FA03F313460C
S214403380184670470000F07F2DE9F843076900F1C2
S214403390140909EB8707A7F1040857F8046C304670
S2144033A0FFF7D2FDC0F120030A280B601E4917DC48
S2144033B0C0F10B0EC14526FA0EF338BF57F8082C5D
S2144033C043EA010528BF002200F1150306FA03F37D
S2144033D022FA0EF243EA020420462946BDE8F88364
S2144033E0C1453ABFA7F1080857F8082C0022B0F1AB
S2144033F00B0315D09E40C3F1200746F07F5622FAB5
S21440340007F1C84546F4401646EA01058CBF58F811
S214403410041C002102FA03F0F94040EA0104DBE70D
S21440342046EA01051446D7E70000F03F2DE9F34190
S21440343001211C469046089E099DFFF7C1FCC4F337
S2144034401302C4F30A54074634BB0192B8F1000F86
S21440345027D002A840F8088DFFF795FD0099F0B1F7
S214403460019AC0F1200302FA03F30B43C2407B618A
S2144034700192019BBB61002B14BF022101213961DF
S214403480C4B1A4F2334404443460C0F1350028602B
S214403490384602B0BDE8F08142F48012D5E7796143
S2144034A0E7E701A8FFF76FFD019B7B6101213961CA
S2144034B02030E5E707EB8103A0F232403060186920
S2144034C0FFF742FDC0EB4110E1E72DE97343884624
S2144034D069468146FFF758FF0D46044601A9404617
S2144034E0FFF752FFD9F81030D8F81020009E9A1AED
S2144034F0019BF31A03EB4213002BD6BFC3EB0333F7
S21440350005EB035501EB035102460B462046294680
S21440351000F0D2FB02B0BDE87083013910B5491106
S2144035201469013102F1140300EB810103EB8404BA
S214403530A342024603D300238A4205D310BD53F864
S214403540042B40F8042BF3E742F8043BF4E700F181
S214403550140200694B11984210B511DB0ADD11F0D8
S2144035601F0107D052F8234024FA01F000FA01F177
S2144035708C420BD102EB8303934203D8002010BD4C
S2144035800346F7E753F8041D0029F5D0012010BD87
S21440359038B502FB01F4214600F008F8054618B19C
S2144035A022460021FEF7D5F9284638BD70B5CD1C19
S2144035B025F0030508350C2D38BF0C25002D064692
S2144035C001DBA94203D90C233360002070BD00F014
S2144035D08FF8234A1468214691B9224C23681BB9B8
S2144035E0304600F041F820602946304600F03CF86E
S2144035F0431C26D10C233360304600F07AF8E4E7CB
S2144036000B685B1B1AD40B2B0FD90B60CD50CC1814
S214403610304600F06EF804F10B00231D20F0070042
S214403620C31A1BD05A42E25070BD8C420DBF63682D
S2144036304B686360136018BF0C46E9E70C46496860
S214403640CAE7C41C24F00304A04205D0211A304621
S21440365000F00AF80130CDD02560D9E770BD00BF34
S2144036605C0440206004402038B5064C00230546E4
S21440367008462360FDF7BEFA431C02D1236803B117
S2144036802B6038BD10094020004870470000C07FBE
S214403690034613F8012B002AFBD1181A013870474D
S2144036A010B56AB10139841810F8013B11F8012FA2
S2144036B0934203D1A04201D0002BF5D1981A10BDF9
S2144036C0104610BD49B1FF2A85BF8A2303600A70A1
S2144036D04FF0FF3098BF0120704708467047000003
S2144036E0024B01461868FFF761BF00BF3C00402010
S2144036F07047704781F0004102E000BF83F000430E
S21440370030B54FEA41044FEA430594EA050F08BF37
S21440371090EA020F1FBF54EA000C55EA020C7FEAFB
S214403720645C7FEA655C00F0E2804FEA5454D4EB78
S2144037305555B8BF6D420CDD2C4480EA020281EA42
S214403740030382EA000083EA010180EA020281EA7A
S2144037500303362D88BF30BD11F0004F4FEA0131CC
S2144037604FF4801C4CEA113102D0404261EB4101DB
S21440377013F0004F4FEA03334CEA133302D0524261
S21440378063EB430394EA050F00F0A780A4F101041D
S214403790D5F1200E0DDB02FA0EFC22FA05F2801857
S2144037A041F1000103FA0EF2801843FA05F359413D
S2144037B00EE0A5F120050EF1200E012A03FA0EFCBC
S2144037C028BF4CF0020C43FA05F3C01851EBE371E6
S2144037D001F0004507D54FF0000EDCF1000C7EEB03
S2144037E000006EEB0101B1F5801F1BD3B1F5001F41
S2144037F00CD349085FEA30004FEA3C0C04F1010460
S2144038004FEA445212F5800F80F09A80BCF1004F88
S21440381008BF5FEA500C50F1000041EB045141EA0A
S214403820050130BD5FEA4C0C404141EB010111F40B
S214403830801FA4F10104E9D191F0000F04BF0146B6
S2144038400020B1FA81F308BF2033A3F10B03B3F194
S21440385020020CDA0C3208DD02F1140CC2F10C0224
S21440386001FA0CF021FA02F10CE002F11402D8BF82
S214403870C2F1200C01FA02F120FA0CFCDCBF41EA4E
S2144038800C019040E41AA2BF01EB0451294330BD1D
S2144038906FEA04041F3C1CDA0C340EDC04F11404FA
S2144038A0C4F1200220FA04F001FA02F340EA0300D1
S2144038B021FA04F345EA030130BDC4F10C04C4F117
S2144038C0200220FA02F001FA04F340EA03002946F7
S2144038D030BD21FA04F0294630BD94F0000F83F441
S2144038E0801306BF81F480110134013D4EE77FEA24
S2144038F0645C18BF7FEA655C29D094EA050F08BF70
S21440390090EA020F05D054EA000C04BF1946104650
S21440391030BD91EA030F1EBF0021002030BD5FEA94
S214403920545C05D14000494128BF41F0004130BDBC
S21440393014F580043CBF01F5801130BD01F0004510
S21440394045F0FE4141F470014FF0000030BD7FEA83
S214403950645C1ABF194610467FEA655C1CBF0B467E
S214403960024650EA013406BF52EA033591EA030F95
S21440397041F4002130BD00BF90F0000F04BF00218D
S214403980704730B54FF4806404F132044FF00005C0
S2144039904FF0000150E700BF90F0000F04BF002139
S2144039A0704730B54FF4806404F1320410F000459F
S2144039B048BF40424FF000013EE700BF42004FEA9A
S2144039C0E2014FEA31014FEA02701FBF12F07F4317
S2144039D093F07F4F81F06051704792F0000F14BF14
S2144039E093F07F4F704730B54FF4607401F0004558
S2144039F021F0004120E700BF50EA010208BF7047AF
S214403A0030B54FF000050AE050EA010208BF7047A3
S214403A1030B511F0004502D5404261EB41014FF40C
S214403A20806404F132045FEA915C3FF4DCAE4FF010
S214403A3003025FEADC0C18BF03325FEADC0C18BFF7
S214403A40033202EBDC02C2F1200300FA03FC20FA48
S214403A5002F001FA03FE40EA0E0021FA02F1144495
S214403A60C1E600BF70B54FF0FF0C4CF4E06C1CEAAA
S214403A7011541DBF1CEA135594EA0C0F95EA0C0F1F
S214403A8000F0DEF82C4481EA030621EA4C5123EA92
S214403A904C5350EA013518BF52EA033541F48011C1
S214403AA043F4801338D0A0FB02CE4FF00005E1FB74
S214403AB002E506F00042E0FB03E54FF00006E1FBBE
S214403AC003569CF0000F18BF4EF0010EA4F1FF0401
S214403AD0B6F5007F64F5407404D25FEA4E0E6D4141
S214403AE046EB060642EAC62141EA55514FEAC52052
S214403AF040EA5E504FEACE2EB4F1FD0C88BFBCF5CE
S214403B00E06F1ED8BEF1004F08BF5FEA500E50F17E
S214403B10000041EB045170BD06F0004646EA010144
S214403B2040EA020081EA0301B4EB5C04C2BFD4EB76
S214403B300C0541EA045170BD41F480114FF0000E6F
S214403B40013C00F3AB8014F1360FDEBF002001F0DD
S214403B50004170BDC4F10004203C35DA0C341BDC57
S214403B6004F11404C4F1200500FA05F320FA04F029
S214403B7001FA05F240EA020001F0004221F000415D
S214403B8010EBD37021FA04F642EB06015EEA430ED0
S214403B9008BF20EAD37070BDC4F10C04C4F1200500
S214403BA000FA04F320FA05F001FA04F240EA0200B3
S214403BB001F0004110EBD37041F100015EEA430E84
S214403BC008BF20EAD37070BDC4F1200500FA05F2A4
S214403BD04EEA020E20FA04F301FA05F243EA020323
S214403BE021FA04F001F0004121FA04F220EA020032
S214403BF000EBD3705EEA430E08BF20EAD37070BD78
S214403C0094F0000F0FD101F00046400041EB010157
S214403C1011F4801F08BF013CF7D041EA060195F039
S214403C20000F18BF704703F00046520043EB0303F3
S214403C3013F4801F08BF013DF7D043EA06037047E0
S214403C4094EA0C0F0CEA135518BF95EA0C0F0CD0EB
S214403C5050EA410618BF52EA4306D1D181EA030131
S214403C6001F000414FF0000070BD50EA410606BF2B
S214403C701046194652EA430619D094EA0C0F02D170
S214403C8050EA013613D195EA0C0F05D152EA0336B5
S214403C901CBF104619460AD181EA030101F00041D3
S214403CA041F0FE4141F470014FF0000070BD41F01C
S214403CB0FE4141F4780170BD70B54FF0FF0C4CF4F6
S214403CC0E06C1CEA11541DBF1CEA135594EA0C0F15
S214403CD095EA0C0F00F0A7F8A4EB050481EA030E62
S214403CE052EA03354FEA013100F088804FEA033349
S214403CF04FF0805545EA131343EA12634FEA022217
S214403D0045EA111545EA10654FEA00260EF00041D7
S214403D109D4208BF964244F1FD0404F5407402D229
S214403D205B084FEA3202B61A65EB03055B084FEABA
S214403D3032024FF480104FF4002CB6EB020E75EBB7
S214403D40030E22BFB61A754640EA0C005B084FEADF
S214403D503202B6EB020E75EB030E22BFB61A75465C
S214403D6040EA5C005B084FEA3202B6EB020E75EBA7
S214403D70030E22BFB61A754640EA9C005B084FEA1F
S214403D803202B6EB020E75EB030E22BFB61A75462C
S214403D9040EADC0055EA060E18D04FEA051545EA1B
S214403DA016754FEA06164FEAC30343EA52734FEAC4
S214403DB0C2025FEA1C1CC0D111F4801F0BD141EA3D
S214403DC000014FF000004FF0004CB6E711F4801FA2
S214403DD004BF01430020B4F1FD0C88BFBCF5E06F82
S214403DE03FF6AFAEB5EB030C04BFB6EB020C5FEA92
S214403DF0500C50F1000041EB045170BD0EF0004EE7
S214403E004EEA113114EB5C04C2BFD4EB0C0541EA18
S214403E10045170BD41F480114FF0000E013C90E615
S214403E2045EA060E8DE60CEA135594EA0C0F08BFD9
S214403E3095EA0C0F3FF43BAF94EA0C0F0AD150EAD8
S214403E4001347FF434AF95EA0C0F7FF425AF10466B
S214403E5019462CE795EA0C0F06D152EA03353FF493
S214403E60FDAE1046194622E750EA410618BF52EA10
S214403E7043067FF4C5AE50EA41047FF40DAF52EAE4
S214403E8043057FF4EBAE12E74FF0FF3C06E000BF81
S214403E904FF0010C02E000BF4FF0010C4DF804CD8E
S214403EA04FEA410C7FEA6C5C4FEA430C18BF7FEA4E
S214403EB06C5C1BD001B050EA410C0CBF52EA430C7C
S214403EC091EA030F02BF90EA020F0020704710F1FC
S214403ED0000F91EA030F58BF994208BF90422CBF8B
S214403EE0D8176FEAE37040F0010070474FEA410C84
S214403EF07FEA6C5C02D150EA013C07D14FEA430CA2
S214403F007FEA6C5CD6D152EA033CD3D05DF8040B12
S214403F10704700BF8446104662468C461946634644
S214403F2000E000BF01B5FFF7B7FF002848BF10F11B
S214403F30000F01BD4DF808EDFFF7F4FF0CBF012060
S214403F4000205DF808FB00BF4DF808EDFFF7EAFFDC
S214403F5034BF012000205DF808FB00BF4DF808ED97
S214403F60FFF7E0FF94BF012000205DF808FB00BF8C
S214403F704DF808EDFFF7CEFF94BF012000205DF816
S214403F8008FB00BF4DF808EDFFF7C4FF34BF012023
S214403F9000205DF808FB00BF4FEA410C7FEA6C5CEE
S214403FA002D150EA013C0AD14FEA430C7FEA6C5CEE
S214403FB002D152EA033C02D14FF0000070474FF066
S214403FC0010070474FEA410212F5001215D211D592
S214403FD06FF47873B3EB625212D94FEAC12343F0C1
S214403FE0004343EA505311F0004F23FA02F018BF43
S214403FF0404270474FF00000704750EA013005D10C
S21440400011F0004008BF6FF0004070474FF00000CE
S214404010704700BF4A0011D212F5001211D20DD5DA
S2144040206FF47873B3EB62520ED44FEAC12343F079
S214404030004343EA505323FA02F070474FF0000023
S214404040704750EA013002D14FF0FF3070474FF0D2
S214404050000070474FEA4102B2F1E04324BFB3F597
S214404060001CDCF1FE5C0DD901F0004C4FEAC002AA
S2144040704CEA5070B2F1004F40EB830008BF20F08E
S2144040800100704711F0804F21D113F13872BCBF48
S21440409001F00040704741F480114FEA5252C2F19D
S2144040A01802C2F1200C10FA0CF320FA02F018BFE6
S2144040B040F001004FEAC1234FEAD32303FA0CFC39
S2144040C040EA0C0023FA02F34FEA4303CCE77FEAC8
S2144040D0625307D150EA01331EBF4FF0FE4040F412
S2144040E04000704701F0004040F0FE4040F40000C1
S2144040F0704700BF4FF0FF3C06E000BF4FF0010C9A
S21440410002E000BF4FF0010C4DF804CD4FEA4002EC
S2144041104FEA41037FEA226C18BF7FEA236C11D036
S21440412001B052EA530C18BF90EA010F58BFB2EBE9
S214404130030088BFC81738BF6FEAE17018BF40F069
S214404140010070477FEA226C02D15FEA402C05D11D
S2144041507FEA236CE4D15FEA412CE1D05DF8040BA2
S214404160704700BF844608466146FFE70FB5FFF735
S214404170C9FF002848BF10F1000F0FBD4DF808EDED
S214404180FFF7F4FF0CBF012000205DF808FB00BFDE
S2144041904DF808EDFFF7EAFF34BF012000205DF838
S2144041A008FB00BF4DF808EDFFF7E0FF94BF012085
S2144041B000205DF808FB00BF4DF808EDFFF7D2FF82
S2144041C094BF012000205DF808FB00BF4DF808EDC5
S2144041D0FFF7C8FF34BF012000205DF808FB00BF92
S2144041E04FEA40024FEA41037FEA226C02D15FEA7F
S2144041F0402C08D17FEA236C02D15FEA412C02D1E1
S2144042004FF0000070474FF001007047000000007C
S2144042100007842F00000503FFFFFFFFFFFF00009D
S2144042200000000000000000000000000C0100003C
S2144042300000000000000000000000000000000039
S2144042400002000000020000000200000002000021
S2144042500002000000020000000200000002000011
S2144042600002000000020000000200000002000001
S214404270010000000007842F00000503FFFFFFFF3A
S214404280FFFF0000000000000000000000000000EB
S2144042900C010000000000000000000000000000CC
S2144042A000000000000200000002000000020000C3
S2144042B000020000000200000002000000020000B1
S2144042C000020000000200000002000000020000A1
S2144042D0000200000001020304050607080C101443
S2144042E01820304001000000000800005100000087
S2144042F002000000000800005100000007082C2DB6
S2144043002E730D0A006E6600696E69747900616EE0
S2144043100000000035000000CEFBFFFFCB0300008E
S214404320010000000000000034000000CEFBFFFF4C
S214404330CB03000001000000000000000000000069
S214404340BC89D897B2D29C3C33A7A8D523F6493926
S2144043503DA7F444FD0FA5329D978CCF08BA5B2548
S214404360436FAC642806681100000000000000009F
S21440437000000000000000000000000000000000F8
S21440438000000000000000000000000000000000E8
S21440439000000000000000000000000000000000D8
S2144043A000000000000000000000000000000000C8
S2144043B000000000000000000000000000000000B8
S2144043C000000000000000004300504F53495800D2
S2144043D02E000000000000000080E03779C3414313
S2144043E0176E05B5B5B89346F5F93FE9034F384D16
S2144043F0321D30F94877825A3CBF737FDD4F1575C2
S214404400000000000000F03F0000000000002440D4
S21440441000000000000059400000000000408F40AF
S214404420000000000088C34000000000006AF8401A
S2144044300000000080842E4100000000D01263413E
S2144044400000000084D797410000000065CDCD41B4
S214404450000000205FA00242000000E87648374295
S214404460000000A2941A6D42000040E59C30A24233
S2144044700000901EC4BCD64200003426F56B0C43A8
S2144044800080E03779C3414300A0D885573476434F
S21440449000C84E676DC1AB43003D9160E458E143B0
S2144044A0408CB5781DAF154450EFE2D6E41A4B4425
S2144044B092D54D06CFF08044F64AE1C7022DB5446A
S2144044C0B49DD9794378EA440500000019000000FD
S2144044D07D000000002020202020202020202828AA
S2144044E0282828202020202020202020202020206F
S2144044F020202020208810101010101010101010AF
S21440450010101010100404040404040404040410DE
S214404510101010101010414141414141010101016C
S2144045200101010101010101010101010101010136
S2144045301010101010104242424242420202020242
S2144045400202020202020202020202020202020206
S21440455010101010200000000000000000000000B6
S2144045600000000000000000000000000000000006
S21440457000000000000000000000000000000000F6
S21440458000000000000000000000000000000000E6
S21440459000000000000000000000000000000000D6
S2144045A000000000000000000000000000000000C6
S2144045B000000000000000000000000000000000B6
S2144045C000000000000000000000000000000000A6
S2144045D00000000000000000F8B500BFF8BC08BCB2
S2144045E09E4670478D014000F8B500BFF8BC08BC39
S20C4045F09E4670476901400039
S2144045F87C064020DC064020F00240200003402095
S2144046080803402000C000401700000001C000001A
S21440461800000000000000009F240000000000008A
S2144046283E49000000000000010000004000402015
S2144046380000000088434000A8434000684340000C
S214404648000000000000000000000000000000001D
S214404658000000000000000000000000000000000D
S21440466800000000000000000000000000000000FD
S21440467800000000000000000000000000000000ED
S21440468800000000000000000000000000000000DD
S214404698430000000000000000000000000000008A
S2144046A800000000000000000000000000000000BD
S2144046B8430000000000000000000000000000006A
S2144046C8000000000000000000000000000000009D
S2144046D8430000000000000000000000000000004A
S2144046E8000000000000000000000000000000007D
S2144046F8430000000000000000000000000000002A
S214404708000000000000000000000000000000005C
S2144047184300000000000000000000000000000009
S214404728000000000000000000000000000000003C
S21440473843000000000000000000000000000000E9
S214404748000000000000000000000000000000001C
S21440475843000000000000000000000000000000C9
S21440476800000000000000000000000000000000FC
S214404778C53640009D2D400000000000D44440004F
S214404788D0434000044340000443400004434000F4
S21440479804434000044340000443400004434000B0
S2144047A80443400004434000FFFFFFFFFFFFFFFFB6
S2144047B8FFFFFFFFFFFF0000010041534349490048
S2144047C8000000000000000000000000000000009C
S2144047D80000000000000000000041534349490023
S2144047E8000000000000000000000000000000007C
S2104047F800000000000000000000000070
S804400000BB
